{
  "contractName": "Booking",
  "abi": [
    {
      "anonymous": false,
      "inputs": [
        {
          "indexed": true,
          "internalType": "uint256",
          "name": "_bookId",
          "type": "uint256"
        }
      ],
      "name": "bookCreated",
      "type": "event"
    },
    {
      "anonymous": false,
      "inputs": [
        {
          "indexed": true,
          "internalType": "uint256",
          "name": "_reviewId",
          "type": "uint256"
        }
      ],
      "name": "reviewCreated",
      "type": "event"
    },
    {
      "anonymous": false,
      "inputs": [
        {
          "indexed": true,
          "internalType": "uint256",
          "name": "_userId",
          "type": "uint256"
        }
      ],
      "name": "userCreated",
      "type": "event"
    },
    {
      "inputs": [],
      "name": "bookCount",
      "outputs": [
        {
          "internalType": "uint256",
          "name": "",
          "type": "uint256"
        }
      ],
      "stateMutability": "view",
      "type": "function",
      "constant": true
    },
    {
      "inputs": [
        {
          "internalType": "uint256",
          "name": "",
          "type": "uint256"
        }
      ],
      "name": "bookList",
      "outputs": [
        {
          "internalType": "string",
          "name": "book_id",
          "type": "string"
        },
        {
          "internalType": "string",
          "name": "passenger_name",
          "type": "string"
        },
        {
          "internalType": "string",
          "name": "location",
          "type": "string"
        },
        {
          "internalType": "string",
          "name": "book_time",
          "type": "string"
        },
        {
          "internalType": "string",
          "name": "vehicle_no",
          "type": "string"
        },
        {
          "internalType": "string",
          "name": "amount",
          "type": "string"
        },
        {
          "internalType": "string",
          "name": "status",
          "type": "string"
        },
        {
          "internalType": "string",
          "name": "payment_details",
          "type": "string"
        }
      ],
      "stateMutability": "view",
      "type": "function",
      "constant": true
    },
    {
      "inputs": [],
      "name": "reviewCount",
      "outputs": [
        {
          "internalType": "uint256",
          "name": "",
          "type": "uint256"
        }
      ],
      "stateMutability": "view",
      "type": "function",
      "constant": true
    },
    {
      "inputs": [
        {
          "internalType": "uint256",
          "name": "",
          "type": "uint256"
        }
      ],
      "name": "reviewList",
      "outputs": [
        {
          "internalType": "string",
          "name": "passenger",
          "type": "string"
        },
        {
          "internalType": "string",
          "name": "driver",
          "type": "string"
        },
        {
          "internalType": "string",
          "name": "feedback",
          "type": "string"
        },
        {
          "internalType": "string",
          "name": "ratings",
          "type": "string"
        }
      ],
      "stateMutability": "view",
      "type": "function",
      "constant": true
    },
    {
      "inputs": [],
      "name": "userCount",
      "outputs": [
        {
          "internalType": "uint256",
          "name": "",
          "type": "uint256"
        }
      ],
      "stateMutability": "view",
      "type": "function",
      "constant": true
    },
    {
      "inputs": [
        {
          "internalType": "uint256",
          "name": "",
          "type": "uint256"
        }
      ],
      "name": "userList",
      "outputs": [
        {
          "internalType": "string",
          "name": "username",
          "type": "string"
        },
        {
          "internalType": "string",
          "name": "password",
          "type": "string"
        },
        {
          "internalType": "string",
          "name": "phone",
          "type": "string"
        },
        {
          "internalType": "string",
          "name": "email",
          "type": "string"
        },
        {
          "internalType": "string",
          "name": "user_type",
          "type": "string"
        },
        {
          "internalType": "string",
          "name": "vehicle_no",
          "type": "string"
        }
      ],
      "stateMutability": "view",
      "type": "function",
      "constant": true
    },
    {
      "inputs": [
        {
          "internalType": "string",
          "name": "uname",
          "type": "string"
        },
        {
          "internalType": "string",
          "name": "pass",
          "type": "string"
        },
        {
          "internalType": "string",
          "name": "phone",
          "type": "string"
        },
        {
          "internalType": "string",
          "name": "email",
          "type": "string"
        },
        {
          "internalType": "string",
          "name": "ut",
          "type": "string"
        },
        {
          "internalType": "string",
          "name": "vno",
          "type": "string"
        }
      ],
      "name": "saveUser",
      "outputs": [],
      "stateMutability": "nonpayable",
      "type": "function"
    },
    {
      "inputs": [],
      "name": "getUserCount",
      "outputs": [
        {
          "internalType": "uint256",
          "name": "",
          "type": "uint256"
        }
      ],
      "stateMutability": "view",
      "type": "function",
      "constant": true
    },
    {
      "inputs": [
        {
          "internalType": "string",
          "name": "bid",
          "type": "string"
        },
        {
          "internalType": "string",
          "name": "pname",
          "type": "string"
        },
        {
          "internalType": "string",
          "name": "loc",
          "type": "string"
        },
        {
          "internalType": "string",
          "name": "btime",
          "type": "string"
        },
        {
          "internalType": "string",
          "name": "vno",
          "type": "string"
        },
        {
          "internalType": "string",
          "name": "amt",
          "type": "string"
        },
        {
          "internalType": "string",
          "name": "st",
          "type": "string"
        },
        {
          "internalType": "string",
          "name": "pd",
          "type": "string"
        }
      ],
      "name": "saveBooking",
      "outputs": [],
      "stateMutability": "nonpayable",
      "type": "function"
    },
    {
      "inputs": [],
      "name": "getBookCount",
      "outputs": [
        {
          "internalType": "uint256",
          "name": "",
          "type": "uint256"
        }
      ],
      "stateMutability": "view",
      "type": "function",
      "constant": true
    },
    {
      "inputs": [
        {
          "internalType": "string",
          "name": "passenger",
          "type": "string"
        },
        {
          "internalType": "string",
          "name": "driver",
          "type": "string"
        },
        {
          "internalType": "string",
          "name": "feedback",
          "type": "string"
        },
        {
          "internalType": "string",
          "name": "ratings",
          "type": "string"
        }
      ],
      "name": "saveReview",
      "outputs": [],
      "stateMutability": "nonpayable",
      "type": "function"
    },
    {
      "inputs": [],
      "name": "getReviewCount",
      "outputs": [
        {
          "internalType": "uint256",
          "name": "",
          "type": "uint256"
        }
      ],
      "stateMutability": "view",
      "type": "function",
      "constant": true
    },
    {
      "inputs": [
        {
          "internalType": "uint256",
          "name": "i",
          "type": "uint256"
        }
      ],
      "name": "getUsername",
      "outputs": [
        {
          "internalType": "string",
          "name": "",
          "type": "string"
        }
      ],
      "stateMutability": "view",
      "type": "function",
      "constant": true
    },
    {
      "inputs": [
        {
          "internalType": "uint256",
          "name": "i",
          "type": "uint256"
        }
      ],
      "name": "getPassword",
      "outputs": [
        {
          "internalType": "string",
          "name": "",
          "type": "string"
        }
      ],
      "stateMutability": "view",
      "type": "function",
      "constant": true
    },
    {
      "inputs": [
        {
          "internalType": "uint256",
          "name": "i",
          "type": "uint256"
        }
      ],
      "name": "getPhone",
      "outputs": [
        {
          "internalType": "string",
          "name": "",
          "type": "string"
        }
      ],
      "stateMutability": "view",
      "type": "function",
      "constant": true
    },
    {
      "inputs": [
        {
          "internalType": "uint256",
          "name": "i",
          "type": "uint256"
        }
      ],
      "name": "getEmail",
      "outputs": [
        {
          "internalType": "string",
          "name": "",
          "type": "string"
        }
      ],
      "stateMutability": "view",
      "type": "function",
      "constant": true
    },
    {
      "inputs": [
        {
          "internalType": "uint256",
          "name": "i",
          "type": "uint256"
        }
      ],
      "name": "getUserType",
      "outputs": [
        {
          "internalType": "string",
          "name": "",
          "type": "string"
        }
      ],
      "stateMutability": "view",
      "type": "function",
      "constant": true
    },
    {
      "inputs": [
        {
          "internalType": "uint256",
          "name": "i",
          "type": "uint256"
        }
      ],
      "name": "getVehicleNo",
      "outputs": [
        {
          "internalType": "string",
          "name": "",
          "type": "string"
        }
      ],
      "stateMutability": "view",
      "type": "function",
      "constant": true
    },
    {
      "inputs": [
        {
          "internalType": "uint256",
          "name": "i",
          "type": "uint256"
        },
        {
          "internalType": "string",
          "name": "vno",
          "type": "string"
        }
      ],
      "name": "updateVehicle",
      "outputs": [],
      "stateMutability": "nonpayable",
      "type": "function"
    },
    {
      "inputs": [
        {
          "internalType": "uint256",
          "name": "i",
          "type": "uint256"
        },
        {
          "internalType": "string",
          "name": "st",
          "type": "string"
        }
      ],
      "name": "updateStatus",
      "outputs": [],
      "stateMutability": "nonpayable",
      "type": "function"
    },
    {
      "inputs": [
        {
          "internalType": "uint256",
          "name": "i",
          "type": "uint256"
        },
        {
          "internalType": "string",
          "name": "amt",
          "type": "string"
        }
      ],
      "name": "updateAmount",
      "outputs": [],
      "stateMutability": "nonpayable",
      "type": "function"
    },
    {
      "inputs": [
        {
          "internalType": "uint256",
          "name": "i",
          "type": "uint256"
        },
        {
          "internalType": "string",
          "name": "pd",
          "type": "string"
        }
      ],
      "name": "updatePayment",
      "outputs": [],
      "stateMutability": "nonpayable",
      "type": "function"
    },
    {
      "inputs": [
        {
          "internalType": "uint256",
          "name": "i",
          "type": "uint256"
        }
      ],
      "name": "getBookingid",
      "outputs": [
        {
          "internalType": "string",
          "name": "",
          "type": "string"
        }
      ],
      "stateMutability": "view",
      "type": "function",
      "constant": true
    },
    {
      "inputs": [
        {
          "internalType": "uint256",
          "name": "i",
          "type": "uint256"
        }
      ],
      "name": "getPassengername",
      "outputs": [
        {
          "internalType": "string",
          "name": "",
          "type": "string"
        }
      ],
      "stateMutability": "view",
      "type": "function",
      "constant": true
    },
    {
      "inputs": [
        {
          "internalType": "uint256",
          "name": "i",
          "type": "uint256"
        }
      ],
      "name": "getLocation",
      "outputs": [
        {
          "internalType": "string",
          "name": "",
          "type": "string"
        }
      ],
      "stateMutability": "view",
      "type": "function",
      "constant": true
    },
    {
      "inputs": [
        {
          "internalType": "uint256",
          "name": "i",
          "type": "uint256"
        }
      ],
      "name": "getBookTime",
      "outputs": [
        {
          "internalType": "string",
          "name": "",
          "type": "string"
        }
      ],
      "stateMutability": "view",
      "type": "function",
      "constant": true
    },
    {
      "inputs": [
        {
          "internalType": "uint256",
          "name": "i",
          "type": "uint256"
        }
      ],
      "name": "getVehicleNumber",
      "outputs": [
        {
          "internalType": "string",
          "name": "",
          "type": "string"
        }
      ],
      "stateMutability": "view",
      "type": "function",
      "constant": true
    },
    {
      "inputs": [
        {
          "internalType": "uint256",
          "name": "i",
          "type": "uint256"
        }
      ],
      "name": "getAmount",
      "outputs": [
        {
          "internalType": "string",
          "name": "",
          "type": "string"
        }
      ],
      "stateMutability": "view",
      "type": "function",
      "constant": true
    },
    {
      "inputs": [
        {
          "internalType": "uint256",
          "name": "i",
          "type": "uint256"
        }
      ],
      "name": "getStatus",
      "outputs": [
        {
          "internalType": "string",
          "name": "",
          "type": "string"
        }
      ],
      "stateMutability": "view",
      "type": "function",
      "constant": true
    },
    {
      "inputs": [
        {
          "internalType": "uint256",
          "name": "i",
          "type": "uint256"
        }
      ],
      "name": "getPaymentdetails",
      "outputs": [
        {
          "internalType": "string",
          "name": "",
          "type": "string"
        }
      ],
      "stateMutability": "view",
      "type": "function",
      "constant": true
    },
    {
      "inputs": [
        {
          "internalType": "uint256",
          "name": "i",
          "type": "uint256"
        }
      ],
      "name": "getPassenger",
      "outputs": [
        {
          "internalType": "string",
          "name": "",
          "type": "string"
        }
      ],
      "stateMutability": "view",
      "type": "function",
      "constant": true
    },
    {
      "inputs": [
        {
          "internalType": "uint256",
          "name": "i",
          "type": "uint256"
        }
      ],
      "name": "getDriver",
      "outputs": [
        {
          "internalType": "string",
          "name": "",
          "type": "string"
        }
      ],
      "stateMutability": "view",
      "type": "function",
      "constant": true
    },
    {
      "inputs": [
        {
          "internalType": "uint256",
          "name": "i",
          "type": "uint256"
        }
      ],
      "name": "getFeedback",
      "outputs": [
        {
          "internalType": "string",
          "name": "",
          "type": "string"
        }
      ],
      "stateMutability": "view",
      "type": "function",
      "constant": true
    },
    {
      "inputs": [
        {
          "internalType": "uint256",
          "name": "i",
          "type": "uint256"
        }
      ],
      "name": "getRating",
      "outputs": [
        {
          "internalType": "string",
          "name": "",
          "type": "string"
        }
      ],
      "stateMutability": "view",
      "type": "function",
      "constant": true
    }
  ],
  "bytecode": "0x6080604052600080556000600255600060045534801561001e57600080fd5b50615a45806200002f6000396000f3fe608060405234801561001057600080fd5b5060043610610223576000357c0100000000000000000000000000000000000000000000000000000000900480639980ec8611610137578063cc932470116100ca578063daa26ae611610099578063daa26ae614610472578063eeac651c14610485578063eff5924f14610498578063f18d18cc146104a1578063f38c6bb6146104b457600080fd5b8063cc93247014610431578063d1b34dd814610444578063d73e0c8914610457578063d902821c1461045f57600080fd5b8063b0ee0e9f11610106578063b0ee0e9f146103fa578063b5cb15f71461040d578063b905ad7814610415578063c162254a1461041e57600080fd5b80639980ec86146103885780639e566bc61461039b5780639f4216e8146103ae578063ad8514c4146103d357600080fd5b80633ffc77d6116101ba578063709dc7fb11610189578063709dc7fb14610334578063779d398f1461033c5780637a57e5451461034f5780637f7b139314610362578063972fe8bc1461037557600080fd5b80633ffc77d6146102e85780635142b90d146102fb5780635c622a0e1461030e578063690ff1fb1461032157600080fd5b80632290b191116101f65780632290b1911461028c5780632ae1c3c21461029f5780632e7d44b5146102b25780633c01ec2b146102c557600080fd5b806307973ccf146102285780631106a3821461024457806313f58f71146102645780631d542f9f14610277575b600080fd5b61023160005481565b6040519081526020015b60405180910390f35b61025761025236600461538b565b6104c7565b60405161023b91906153f1565b61025761027236600461538b565b61073d565b61028a6102853660046154c7565b610ad7565b005b61025761029a36600461538b565b610b01565b61028a6102ad36600461550e565b610d77565b6102576102c036600461538b565b610e9f565b6102d86102d336600461538b565b6111ab565b60405161023b9493929190615603565b61028a6102f63660046154c7565b6113f3565b61025761030936600461538b565b611418565b61025761031c36600461538b565b6118d7565b61025761032f36600461538b565b611d96565b600454610231565b61028a61034a36600461565b565b612130565b61028a61035d3660046154c7565b6122ac565b61025761037036600461538b565b6122d1565b61025761038336600461538b565b612702565b61025761039636600461538b565b612a9c565b6102576103a936600461538b565b612ecd565b6103c16103bc36600461538b565b61338a565b60405161023b9695949392919061579b565b6103e66103e136600461538b565b6136ee565b60405161023b98979695949392919061581d565b61025761040836600461538b565b613b6e565b600054610231565b61023160025481565b61028a61042c3660046158cc565b613d56565b61025761043f36600461538b565b613e3a565b61028a6104523660046154c7565b614022565b600254610231565b61025761046d36600461538b565b614047565b61025761048036600461538b565b614478565b61025761049336600461538b565b6148a9565b61023160045481565b6102576104af36600461538b565b614cda565b6102576104c236600461538b565b614fe6565b60606000600560008481526020019081526020016000206040518060800160405290816000820180546104f990615979565b80601f016020809104026020016040519081016040528092919081815260200182805461052590615979565b80156105725780601f1061054757610100808354040283529160200191610572565b820191906000526020600020905b81548152906001019060200180831161055557829003601f168201915b5050505050815260200160018201805461058b90615979565b80601f01602080910402602001604051908101604052809291908181526020018280546105b790615979565b80156106045780601f106105d957610100808354040283529160200191610604565b820191906000526020600020905b8154815290600101906020018083116105e757829003601f168201915b5050505050815260200160028201805461061d90615979565b80601f016020809104026020016040519081016040528092919081815260200182805461064990615979565b80156106965780601f1061066b57610100808354040283529160200191610696565b820191906000526020600020905b81548152906001019060200180831161067957829003601f168201915b505050505081526020016003820180546106af90615979565b80601f01602080910402602001604051908101604052809291908181526020018280546106db90615979565b80156107285780601f106106fd57610100808354040283529160200191610728565b820191906000526020600020905b81548152906001019060200180831161070b57829003601f168201915b50505091909252505050604001519392505050565b60606000600160008481526020019081526020016000206040518060c001604052908160008201805461076f90615979565b80601f016020809104026020016040519081016040528092919081815260200182805461079b90615979565b80156107e85780601f106107bd576101008083540402835291602001916107e8565b820191906000526020600020905b8154815290600101906020018083116107cb57829003601f168201915b5050505050815260200160018201805461080190615979565b80601f016020809104026020016040519081016040528092919081815260200182805461082d90615979565b801561087a5780601f1061084f5761010080835404028352916020019161087a565b820191906000526020600020905b81548152906001019060200180831161085d57829003601f168201915b5050505050815260200160028201805461089390615979565b80601f01602080910402602001604051908101604052809291908181526020018280546108bf90615979565b801561090c5780601f106108e15761010080835404028352916020019161090c565b820191906000526020600020905b8154815290600101906020018083116108ef57829003601f168201915b5050505050815260200160038201805461092590615979565b80601f016020809104026020016040519081016040528092919081815260200182805461095190615979565b801561099e5780601f106109735761010080835404028352916020019161099e565b820191906000526020600020905b81548152906001019060200180831161098157829003601f168201915b505050505081526020016004820180546109b790615979565b80601f01602080910402602001604051908101604052809291908181526020018280546109e390615979565b8015610a305780601f10610a0557610100808354040283529160200191610a30565b820191906000526020600020905b815481529060010190602001808311610a1357829003601f168201915b50505050508152602001600582018054610a4990615979565b80601f0160208091040260200160405190810160405280929190818152602001828054610a7590615979565b8015610ac25780601f10610a9757610100808354040283529160200191610ac2565b820191906000526020600020905b815481529060010190602001808311610aa557829003601f168201915b50505091909252505050608001519392505050565b60008281526003602090815260409091208251610afc926005909201918401906152f2565b505050565b6060600060056000848152602001908152602001600020604051806080016040529081600082018054610b3390615979565b80601f0160208091040260200160405190810160405280929190818152602001828054610b5f90615979565b8015610bac5780601f10610b8157610100808354040283529160200191610bac565b820191906000526020600020905b815481529060010190602001808311610b8f57829003601f168201915b50505050508152602001600182018054610bc590615979565b80601f0160208091040260200160405190810160405280929190818152602001828054610bf190615979565b8015610c3e5780601f10610c1357610100808354040283529160200191610c3e565b820191906000526020600020905b815481529060010190602001808311610c2157829003601f168201915b50505050508152602001600282018054610c5790615979565b80601f0160208091040260200160405190810160405280929190818152602001828054610c8390615979565b8015610cd05780601f10610ca557610100808354040283529160200191610cd0565b820191906000526020600020905b815481529060010190602001808311610cb357829003601f168201915b50505050508152602001600382018054610ce990615979565b80601f0160208091040260200160405190810160405280929190818152602001828054610d1590615979565b8015610d625780601f10610d3757610100808354040283529160200191610d62565b820191906000526020600020905b815481529060010190602001808311610d4557829003601f168201915b50505091909252505050602001519392505050565b6040805160c0810182528781526020808201889052818301879052606082018690526080820185905260a0820184905260008054815260018252929092208151805192939192610dca92849201906152f2565b506020828101518051610de392600185019201906152f2565b5060408201518051610dff9160028401916020909101906152f2565b5060608201518051610e1b9160038401916020909101906152f2565b5060808201518051610e379160048401916020909101906152f2565b5060a08201518051610e539160058401916020909101906152f2565b5050600080546040519092507f1ed675bb725b3a8b0434b9ee956fe05e4c0e79f9dc67c3f1a717a5bb1fd88fd39190a2600080549080610e92836159cd565b9190505550505050505050565b60606000600160008481526020019081526020016000206040518060c0016040529081600082018054610ed190615979565b80601f0160208091040260200160405190810160405280929190818152602001828054610efd90615979565b8015610f4a5780601f10610f1f57610100808354040283529160200191610f4a565b820191906000526020600020905b815481529060010190602001808311610f2d57829003601f168201915b50505050508152602001600182018054610f6390615979565b80601f0160208091040260200160405190810160405280929190818152602001828054610f8f90615979565b8015610fdc5780601f10610fb157610100808354040283529160200191610fdc565b820191906000526020600020905b815481529060010190602001808311610fbf57829003601f168201915b50505050508152602001600282018054610ff590615979565b80601f016020809104026020016040519081016040528092919081815260200182805461102190615979565b801561106e5780601f106110435761010080835404028352916020019161106e565b820191906000526020600020905b81548152906001019060200180831161105157829003601f168201915b5050505050815260200160038201805461108790615979565b80601f01602080910402602001604051908101604052809291908181526020018280546110b390615979565b80156111005780601f106110d557610100808354040283529160200191611100565b820191906000526020600020905b8154815290600101906020018083116110e357829003601f168201915b5050505050815260200160048201805461111990615979565b80601f016020809104026020016040519081016040528092919081815260200182805461114590615979565b80156111925780601f1061116757610100808354040283529160200191611192565b820191906000526020600020905b81548152906001019060200180831161117557829003601f168201915b505050505081526020016005820180546106af90615979565b6005602052600090815260409020805481906111c690615979565b80601f01602080910402602001604051908101604052809291908181526020018280546111f290615979565b801561123f5780601f106112145761010080835404028352916020019161123f565b820191906000526020600020905b81548152906001019060200180831161122257829003601f168201915b50505050509080600101805461125490615979565b80601f016020809104026020016040519081016040528092919081815260200182805461128090615979565b80156112cd5780601f106112a2576101008083540402835291602001916112cd565b820191906000526020600020905b8154815290600101906020018083116112b057829003601f168201915b5050505050908060020180546112e290615979565b80601f016020809104026020016040519081016040528092919081815260200182805461130e90615979565b801561135b5780601f106113305761010080835404028352916020019161135b565b820191906000526020600020905b81548152906001019060200180831161133e57829003601f168201915b50505050509080600301805461137090615979565b80601f016020809104026020016040519081016040528092919081815260200182805461139c90615979565b80156113e95780601f106113be576101008083540402835291602001916113e9565b820191906000526020600020905b8154815290600101906020018083116113cc57829003601f168201915b5050505050905084565b60008281526003602090815260409091208251610afc926007909201918401906152f2565b60606000600360008481526020019081526020016000206040518061010001604052908160008201805461144b90615979565b80601f016020809104026020016040519081016040528092919081815260200182805461147790615979565b80156114c45780601f10611499576101008083540402835291602001916114c4565b820191906000526020600020905b8154815290600101906020018083116114a757829003601f168201915b505050505081526020016001820180546114dd90615979565b80601f016020809104026020016040519081016040528092919081815260200182805461150990615979565b80156115565780601f1061152b57610100808354040283529160200191611556565b820191906000526020600020905b81548152906001019060200180831161153957829003601f168201915b5050505050815260200160028201805461156f90615979565b80601f016020809104026020016040519081016040528092919081815260200182805461159b90615979565b80156115e85780601f106115bd576101008083540402835291602001916115e8565b820191906000526020600020905b8154815290600101906020018083116115cb57829003601f168201915b5050505050815260200160038201805461160190615979565b80601f016020809104026020016040519081016040528092919081815260200182805461162d90615979565b801561167a5780601f1061164f5761010080835404028352916020019161167a565b820191906000526020600020905b81548152906001019060200180831161165d57829003601f168201915b5050505050815260200160048201805461169390615979565b80601f01602080910402602001604051908101604052809291908181526020018280546116bf90615979565b801561170c5780601f106116e15761010080835404028352916020019161170c565b820191906000526020600020905b8154815290600101906020018083116116ef57829003601f168201915b5050505050815260200160058201805461172590615979565b80601f016020809104026020016040519081016040528092919081815260200182805461175190615979565b801561179e5780601f106117735761010080835404028352916020019161179e565b820191906000526020600020905b81548152906001019060200180831161178157829003601f168201915b505050505081526020016006820180546117b790615979565b80601f01602080910402602001604051908101604052809291908181526020018280546117e390615979565b80156118305780601f1061180557610100808354040283529160200191611830565b820191906000526020600020905b81548152906001019060200180831161181357829003601f168201915b5050505050815260200160078201805461184990615979565b80601f016020809104026020016040519081016040528092919081815260200182805461187590615979565b80156118c25780601f10611897576101008083540402835291602001916118c2565b820191906000526020600020905b8154815290600101906020018083116118a557829003601f168201915b5050509190925250505060e001519392505050565b60606000600360008481526020019081526020016000206040518061010001604052908160008201805461190a90615979565b80601f016020809104026020016040519081016040528092919081815260200182805461193690615979565b80156119835780601f1061195857610100808354040283529160200191611983565b820191906000526020600020905b81548152906001019060200180831161196657829003601f168201915b5050505050815260200160018201805461199c90615979565b80601f01602080910402602001604051908101604052809291908181526020018280546119c890615979565b8015611a155780601f106119ea57610100808354040283529160200191611a15565b820191906000526020600020905b8154815290600101906020018083116119f857829003601f168201915b50505050508152602001600282018054611a2e90615979565b80601f0160208091040260200160405190810160405280929190818152602001828054611a5a90615979565b8015611aa75780601f10611a7c57610100808354040283529160200191611aa7565b820191906000526020600020905b815481529060010190602001808311611a8a57829003601f168201915b50505050508152602001600382018054611ac090615979565b80601f0160208091040260200160405190810160405280929190818152602001828054611aec90615979565b8015611b395780601f10611b0e57610100808354040283529160200191611b39565b820191906000526020600020905b815481529060010190602001808311611b1c57829003601f168201915b50505050508152602001600482018054611b5290615979565b80601f0160208091040260200160405190810160405280929190818152602001828054611b7e90615979565b8015611bcb5780601f10611ba057610100808354040283529160200191611bcb565b820191906000526020600020905b815481529060010190602001808311611bae57829003601f168201915b50505050508152602001600582018054611be490615979565b80601f0160208091040260200160405190810160405280929190818152602001828054611c1090615979565b8015611c5d5780601f10611c3257610100808354040283529160200191611c5d565b820191906000526020600020905b815481529060010190602001808311611c4057829003601f168201915b50505050508152602001600682018054611c7690615979565b80601f0160208091040260200160405190810160405280929190818152602001828054611ca290615979565b8015611cef5780601f10611cc457610100808354040283529160200191611cef565b820191906000526020600020905b815481529060010190602001808311611cd257829003601f168201915b50505050508152602001600782018054611d0890615979565b80601f0160208091040260200160405190810160405280929190818152602001828054611d3490615979565b8015611d815780601f10611d5657610100808354040283529160200191611d81565b820191906000526020600020905b815481529060010190602001808311611d6457829003601f168201915b5050509190925250505060c001519392505050565b60606000600160008481526020019081526020016000206040518060c0016040529081600082018054611dc890615979565b80601f0160208091040260200160405190810160405280929190818152602001828054611df490615979565b8015611e415780601f10611e1657610100808354040283529160200191611e41565b820191906000526020600020905b815481529060010190602001808311611e2457829003601f168201915b50505050508152602001600182018054611e5a90615979565b80601f0160208091040260200160405190810160405280929190818152602001828054611e8690615979565b8015611ed35780601f10611ea857610100808354040283529160200191611ed3565b820191906000526020600020905b815481529060010190602001808311611eb657829003601f168201915b50505050508152602001600282018054611eec90615979565b80601f0160208091040260200160405190810160405280929190818152602001828054611f1890615979565b8015611f655780601f10611f3a57610100808354040283529160200191611f65565b820191906000526020600020905b815481529060010190602001808311611f4857829003601f168201915b50505050508152602001600382018054611f7e90615979565b80601f0160208091040260200160405190810160405280929190818152602001828054611faa90615979565b8015611ff75780601f10611fcc57610100808354040283529160200191611ff7565b820191906000526020600020905b815481529060010190602001808311611fda57829003601f168201915b5050505050815260200160048201805461201090615979565b80601f016020809104026020016040519081016040528092919081815260200182805461203c90615979565b80156120895780601f1061205e57610100808354040283529160200191612089565b820191906000526020600020905b81548152906001019060200180831161206c57829003601f168201915b505050505081526020016005820180546120a290615979565b80601f01602080910402602001604051908101604052809291908181526020018280546120ce90615979565b801561211b5780601f106120f05761010080835404028352916020019161211b565b820191906000526020600020905b8154815290600101906020018083116120fe57829003601f168201915b5050509190925250505060a001519392505050565b60405180610100016040528089815260200188815260200187815260200186815260200185815260200184815260200183815260200182815250600360006002548152602001908152602001600020600082015181600001908051906020019061219b9291906152f2565b5060208281015180516121b492600185019201906152f2565b50604082015180516121d09160028401916020909101906152f2565b50606082015180516121ec9160038401916020909101906152f2565b50608082015180516122089160048401916020909101906152f2565b5060a082015180516122249160058401916020909101906152f2565b5060c082015180516122409160068401916020909101906152f2565b5060e0820151805161225c9160078401916020909101906152f2565b50506002546040519091507f8ed4ef4d8c1636e5d7c34f5268e6dc47655477a99b947509f797bb4812be1a4e90600090a26002805490600061229d836159cd565b91905055505050505050505050565b60008281526003602090815260409091208251610afc926004909201918401906152f2565b60606000600360008481526020019081526020016000206040518061010001604052908160008201805461230490615979565b80601f016020809104026020016040519081016040528092919081815260200182805461233090615979565b801561237d5780601f106123525761010080835404028352916020019161237d565b820191906000526020600020905b81548152906001019060200180831161236057829003601f168201915b5050505050815260200160018201805461239690615979565b80601f01602080910402602001604051908101604052809291908181526020018280546123c290615979565b801561240f5780601f106123e45761010080835404028352916020019161240f565b820191906000526020600020905b8154815290600101906020018083116123f257829003601f168201915b5050505050815260200160028201805461242890615979565b80601f016020809104026020016040519081016040528092919081815260200182805461245490615979565b80156124a15780601f10612476576101008083540402835291602001916124a1565b820191906000526020600020905b81548152906001019060200180831161248457829003601f168201915b505050505081526020016003820180546124ba90615979565b80601f01602080910402602001604051908101604052809291908181526020018280546124e690615979565b80156125335780601f1061250857610100808354040283529160200191612533565b820191906000526020600020905b81548152906001019060200180831161251657829003601f168201915b5050505050815260200160048201805461254c90615979565b80601f016020809104026020016040519081016040528092919081815260200182805461257890615979565b80156125c55780601f1061259a576101008083540402835291602001916125c5565b820191906000526020600020905b8154815290600101906020018083116125a857829003601f168201915b505050505081526020016005820180546125de90615979565b80601f016020809104026020016040519081016040528092919081815260200182805461260a90615979565b80156126575780601f1061262c57610100808354040283529160200191612657565b820191906000526020600020905b81548152906001019060200180831161263a57829003601f168201915b5050505050815260200160068201805461267090615979565b80601f016020809104026020016040519081016040528092919081815260200182805461269c90615979565b80156126e95780601f106126be576101008083540402835291602001916126e9565b820191906000526020600020905b8154815290600101906020018083116126cc57829003601f168201915b505050505081526020016007820180546106af90615979565b60606000600160008481526020019081526020016000206040518060c001604052908160008201805461273490615979565b80601f016020809104026020016040519081016040528092919081815260200182805461276090615979565b80156127ad5780601f10612782576101008083540402835291602001916127ad565b820191906000526020600020905b81548152906001019060200180831161279057829003601f168201915b505050505081526020016001820180546127c690615979565b80601f01602080910402602001604051908101604052809291908181526020018280546127f290615979565b801561283f5780601f106128145761010080835404028352916020019161283f565b820191906000526020600020905b81548152906001019060200180831161282257829003601f168201915b5050505050815260200160028201805461285890615979565b80601f016020809104026020016040519081016040528092919081815260200182805461288490615979565b80156128d15780601f106128a6576101008083540402835291602001916128d1565b820191906000526020600020905b8154815290600101906020018083116128b457829003601f168201915b505050505081526020016003820180546128ea90615979565b80601f016020809104026020016040519081016040528092919081815260200182805461291690615979565b80156129635780601f1061293857610100808354040283529160200191612963565b820191906000526020600020905b81548152906001019060200180831161294657829003601f168201915b5050505050815260200160048201805461297c90615979565b80601f01602080910402602001604051908101604052809291908181526020018280546129a890615979565b80156129f55780601f106129ca576101008083540402835291602001916129f5565b820191906000526020600020905b8154815290600101906020018083116129d857829003601f168201915b50505050508152602001600582018054612a0e90615979565b80601f0160208091040260200160405190810160405280929190818152602001828054612a3a90615979565b8015612a875780601f10612a5c57610100808354040283529160200191612a87565b820191906000526020600020905b815481529060010190602001808311612a6a57829003601f168201915b50505091909252505050606001519392505050565b606060006003600084815260200190815260200160002060405180610100016040529081600082018054612acf90615979565b80601f0160208091040260200160405190810160405280929190818152602001828054612afb90615979565b8015612b485780601f10612b1d57610100808354040283529160200191612b48565b820191906000526020600020905b815481529060010190602001808311612b2b57829003601f168201915b50505050508152602001600182018054612b6190615979565b80601f0160208091040260200160405190810160405280929190818152602001828054612b8d90615979565b8015612bda5780601f10612baf57610100808354040283529160200191612bda565b820191906000526020600020905b815481529060010190602001808311612bbd57829003601f168201915b50505050508152602001600282018054612bf390615979565b80601f0160208091040260200160405190810160405280929190818152602001828054612c1f90615979565b8015612c6c5780601f10612c4157610100808354040283529160200191612c6c565b820191906000526020600020905b815481529060010190602001808311612c4f57829003601f168201915b50505050508152602001600382018054612c8590615979565b80601f0160208091040260200160405190810160405280929190818152602001828054612cb190615979565b8015612cfe5780601f10612cd357610100808354040283529160200191612cfe565b820191906000526020600020905b815481529060010190602001808311612ce157829003601f168201915b50505050508152602001600482018054612d1790615979565b80601f0160208091040260200160405190810160405280929190818152602001828054612d4390615979565b8015612d905780601f10612d6557610100808354040283529160200191612d90565b820191906000526020600020905b815481529060010190602001808311612d7357829003601f168201915b50505050508152602001600582018054612da990615979565b80601f0160208091040260200160405190810160405280929190818152602001828054612dd590615979565b8015612e225780601f10612df757610100808354040283529160200191612e22565b820191906000526020600020905b815481529060010190602001808311612e0557829003601f168201915b50505050508152602001600682018054612e3b90615979565b80601f0160208091040260200160405190810160405280929190818152602001828054612e6790615979565b8015612eb45780601f10612e8957610100808354040283529160200191612eb4565b820191906000526020600020905b815481529060010190602001808311612e9757829003601f168201915b505050505081526020016007820180546120a290615979565b606060006003600084815260200190815260200160002060405180610100016040529081600082018054612f0090615979565b80601f0160208091040260200160405190810160405280929190818152602001828054612f2c90615979565b8015612f795780601f10612f4e57610100808354040283529160200191612f79565b820191906000526020600020905b815481529060010190602001808311612f5c57829003601f168201915b50505050508152602001600182018054612f9290615979565b80601f0160208091040260200160405190810160405280929190818152602001828054612fbe90615979565b801561300b5780601f10612fe05761010080835404028352916020019161300b565b820191906000526020600020905b815481529060010190602001808311612fee57829003601f168201915b5050505050815260200160028201805461302490615979565b80601f016020809104026020016040519081016040528092919081815260200182805461305090615979565b801561309d5780601f106130725761010080835404028352916020019161309d565b820191906000526020600020905b81548152906001019060200180831161308057829003601f168201915b505050505081526020016003820180546130b690615979565b80601f01602080910402602001604051908101604052809291908181526020018280546130e290615979565b801561312f5780601f106131045761010080835404028352916020019161312f565b820191906000526020600020905b81548152906001019060200180831161311257829003601f168201915b5050505050815260200160048201805461314890615979565b80601f016020809104026020016040519081016040528092919081815260200182805461317490615979565b80156131c15780601f10613196576101008083540402835291602001916131c1565b820191906000526020600020905b8154815290600101906020018083116131a457829003601f168201915b505050505081526020016005820180546131da90615979565b80601f016020809104026020016040519081016040528092919081815260200182805461320690615979565b80156132535780601f1061322857610100808354040283529160200191613253565b820191906000526020600020905b81548152906001019060200180831161323657829003601f168201915b5050505050815260200160068201805461326c90615979565b80601f016020809104026020016040519081016040528092919081815260200182805461329890615979565b80156132e55780601f106132ba576101008083540402835291602001916132e5565b820191906000526020600020905b8154815290600101906020018083116132c857829003601f168201915b505050505081526020016007820180546132fe90615979565b80601f016020809104026020016040519081016040528092919081815260200182805461332a90615979565b80156133775780601f1061334c57610100808354040283529160200191613377565b820191906000526020600020905b81548152906001019060200180831161335a57829003601f168201915b5050509190925250509051949350505050565b6001602052600090815260409020805481906133a590615979565b80601f01602080910402602001604051908101604052809291908181526020018280546133d190615979565b801561341e5780601f106133f35761010080835404028352916020019161341e565b820191906000526020600020905b81548152906001019060200180831161340157829003601f168201915b50505050509080600101805461343390615979565b80601f016020809104026020016040519081016040528092919081815260200182805461345f90615979565b80156134ac5780601f10613481576101008083540402835291602001916134ac565b820191906000526020600020905b81548152906001019060200180831161348f57829003601f168201915b5050505050908060020180546134c190615979565b80601f01602080910402602001604051908101604052809291908181526020018280546134ed90615979565b801561353a5780601f1061350f5761010080835404028352916020019161353a565b820191906000526020600020905b81548152906001019060200180831161351d57829003601f168201915b50505050509080600301805461354f90615979565b80601f016020809104026020016040519081016040528092919081815260200182805461357b90615979565b80156135c85780601f1061359d576101008083540402835291602001916135c8565b820191906000526020600020905b8154815290600101906020018083116135ab57829003601f168201915b5050505050908060040180546135dd90615979565b80601f016020809104026020016040519081016040528092919081815260200182805461360990615979565b80156136565780601f1061362b57610100808354040283529160200191613656565b820191906000526020600020905b81548152906001019060200180831161363957829003601f168201915b50505050509080600501805461366b90615979565b80601f016020809104026020016040519081016040528092919081815260200182805461369790615979565b80156136e45780601f106136b9576101008083540402835291602001916136e4565b820191906000526020600020905b8154815290600101906020018083116136c757829003601f168201915b5050505050905086565b60036020526000908152604090208054819061370990615979565b80601f016020809104026020016040519081016040528092919081815260200182805461373590615979565b80156137825780601f1061375757610100808354040283529160200191613782565b820191906000526020600020905b81548152906001019060200180831161376557829003601f168201915b50505050509080600101805461379790615979565b80601f01602080910402602001604051908101604052809291908181526020018280546137c390615979565b80156138105780601f106137e557610100808354040283529160200191613810565b820191906000526020600020905b8154815290600101906020018083116137f357829003601f168201915b50505050509080600201805461382590615979565b80601f016020809104026020016040519081016040528092919081815260200182805461385190615979565b801561389e5780601f106138735761010080835404028352916020019161389e565b820191906000526020600020905b81548152906001019060200180831161388157829003601f168201915b5050505050908060030180546138b390615979565b80601f01602080910402602001604051908101604052809291908181526020018280546138df90615979565b801561392c5780601f106139015761010080835404028352916020019161392c565b820191906000526020600020905b81548152906001019060200180831161390f57829003601f168201915b50505050509080600401805461394190615979565b80601f016020809104026020016040519081016040528092919081815260200182805461396d90615979565b80156139ba5780601f1061398f576101008083540402835291602001916139ba565b820191906000526020600020905b81548152906001019060200180831161399d57829003601f168201915b5050505050908060050180546139cf90615979565b80601f01602080910402602001604051908101604052809291908181526020018280546139fb90615979565b8015613a485780601f10613a1d57610100808354040283529160200191613a48565b820191906000526020600020905b815481529060010190602001808311613a2b57829003601f168201915b505050505090806006018054613a5d90615979565b80601f0160208091040260200160405190810160405280929190818152602001828054613a8990615979565b8015613ad65780601f10613aab57610100808354040283529160200191613ad6565b820191906000526020600020905b815481529060010190602001808311613ab957829003601f168201915b505050505090806007018054613aeb90615979565b80601f0160208091040260200160405190810160405280929190818152602001828054613b1790615979565b8015613b645780601f10613b3957610100808354040283529160200191613b64565b820191906000526020600020905b815481529060010190602001808311613b4757829003601f168201915b5050505050905088565b6060600060056000848152602001908152602001600020604051806080016040529081600082018054613ba090615979565b80601f0160208091040260200160405190810160405280929190818152602001828054613bcc90615979565b8015613c195780601f10613bee57610100808354040283529160200191613c19565b820191906000526020600020905b815481529060010190602001808311613bfc57829003601f168201915b50505050508152602001600182018054613c3290615979565b80601f0160208091040260200160405190810160405280929190818152602001828054613c5e90615979565b8015613cab5780601f10613c8057610100808354040283529160200191613cab565b820191906000526020600020905b815481529060010190602001808311613c8e57829003601f168201915b50505050508152602001600282018054613cc490615979565b80601f0160208091040260200160405190810160405280929190818152602001828054613cf090615979565b8015613d3d5780601f10613d1257610100808354040283529160200191613d3d565b820191906000526020600020905b815481529060010190602001808311613d2057829003601f168201915b50505050508152602001600382018054612a0e90615979565b60408051608081018252858152602080820186905281830185905260608201849052600454600090815260058252929092208151805192939192613d9d92849201906152f2565b506020828101518051613db692600185019201906152f2565b5060408201518051613dd29160028401916020909101906152f2565b5060608201518051613dee9160038401916020909101906152f2565b50506004546040519091507ff7bd1b3885343c1b464090b81018dcb90fafa93f5095b0ff1961ee41b3cf78f890600090a260048054906000613e2f836159cd565b919050555050505050565b6060600060056000848152602001908152602001600020604051806080016040529081600082018054613e6c90615979565b80601f0160208091040260200160405190810160405280929190818152602001828054613e9890615979565b8015613ee55780601f10613eba57610100808354040283529160200191613ee5565b820191906000526020600020905b815481529060010190602001808311613ec857829003601f168201915b50505050508152602001600182018054613efe90615979565b80601f0160208091040260200160405190810160405280929190818152602001828054613f2a90615979565b8015613f775780601f10613f4c57610100808354040283529160200191613f77565b820191906000526020600020905b815481529060010190602001808311613f5a57829003601f168201915b50505050508152602001600282018054613f9090615979565b80601f0160208091040260200160405190810160405280929190818152602001828054613fbc90615979565b80156140095780601f10613fde57610100808354040283529160200191614009565b820191906000526020600020905b815481529060010190602001808311613fec57829003601f168201915b505050505081526020016003820180546132fe90615979565b60008281526003602090815260409091208251610afc926006909201918401906152f2565b60606000600360008481526020019081526020016000206040518061010001604052908160008201805461407a90615979565b80601f01602080910402602001604051908101604052809291908181526020018280546140a690615979565b80156140f35780601f106140c8576101008083540402835291602001916140f3565b820191906000526020600020905b8154815290600101906020018083116140d657829003601f168201915b5050505050815260200160018201805461410c90615979565b80601f016020809104026020016040519081016040528092919081815260200182805461413890615979565b80156141855780601f1061415a57610100808354040283529160200191614185565b820191906000526020600020905b81548152906001019060200180831161416857829003601f168201915b5050505050815260200160028201805461419e90615979565b80601f01602080910402602001604051908101604052809291908181526020018280546141ca90615979565b80156142175780601f106141ec57610100808354040283529160200191614217565b820191906000526020600020905b8154815290600101906020018083116141fa57829003601f168201915b5050505050815260200160038201805461423090615979565b80601f016020809104026020016040519081016040528092919081815260200182805461425c90615979565b80156142a95780601f1061427e576101008083540402835291602001916142a9565b820191906000526020600020905b81548152906001019060200180831161428c57829003601f168201915b505050505081526020016004820180546142c290615979565b80601f01602080910402602001604051908101604052809291908181526020018280546142ee90615979565b801561433b5780601f106143105761010080835404028352916020019161433b565b820191906000526020600020905b81548152906001019060200180831161431e57829003601f168201915b5050505050815260200160058201805461435490615979565b80601f016020809104026020016040519081016040528092919081815260200182805461438090615979565b80156143cd5780601f106143a2576101008083540402835291602001916143cd565b820191906000526020600020905b8154815290600101906020018083116143b057829003601f168201915b505050505081526020016006820180546143e690615979565b80601f016020809104026020016040519081016040528092919081815260200182805461441290615979565b801561445f5780601f106144345761010080835404028352916020019161445f565b820191906000526020600020905b81548152906001019060200180831161444257829003601f168201915b50505050508152602001600782018054612a0e90615979565b6060600060036000848152602001908152602001600020604051806101000160405290816000820180546144ab90615979565b80601f01602080910402602001604051908101604052809291908181526020018280546144d790615979565b80156145245780601f106144f957610100808354040283529160200191614524565b820191906000526020600020905b81548152906001019060200180831161450757829003601f168201915b5050505050815260200160018201805461453d90615979565b80601f016020809104026020016040519081016040528092919081815260200182805461456990615979565b80156145b65780601f1061458b576101008083540402835291602001916145b6565b820191906000526020600020905b81548152906001019060200180831161459957829003601f168201915b505050505081526020016002820180546145cf90615979565b80601f01602080910402602001604051908101604052809291908181526020018280546145fb90615979565b80156146485780601f1061461d57610100808354040283529160200191614648565b820191906000526020600020905b81548152906001019060200180831161462b57829003601f168201915b5050505050815260200160038201805461466190615979565b80601f016020809104026020016040519081016040528092919081815260200182805461468d90615979565b80156146da5780601f106146af576101008083540402835291602001916146da565b820191906000526020600020905b8154815290600101906020018083116146bd57829003601f168201915b505050505081526020016004820180546146f390615979565b80601f016020809104026020016040519081016040528092919081815260200182805461471f90615979565b801561476c5780601f106147415761010080835404028352916020019161476c565b820191906000526020600020905b81548152906001019060200180831161474f57829003601f168201915b5050505050815260200160058201805461478590615979565b80601f01602080910402602001604051908101604052809291908181526020018280546147b190615979565b80156147fe5780601f106147d3576101008083540402835291602001916147fe565b820191906000526020600020905b8154815290600101906020018083116147e157829003601f168201915b5050505050815260200160068201805461481790615979565b80601f016020809104026020016040519081016040528092919081815260200182805461484390615979565b80156148905780601f1061486557610100808354040283529160200191614890565b820191906000526020600020905b81548152906001019060200180831161487357829003601f168201915b50505050508152602001600782018054610a4990615979565b6060600060036000848152602001908152602001600020604051806101000160405290816000820180546148dc90615979565b80601f016020809104026020016040519081016040528092919081815260200182805461490890615979565b80156149555780601f1061492a57610100808354040283529160200191614955565b820191906000526020600020905b81548152906001019060200180831161493857829003601f168201915b5050505050815260200160018201805461496e90615979565b80601f016020809104026020016040519081016040528092919081815260200182805461499a90615979565b80156149e75780601f106149bc576101008083540402835291602001916149e7565b820191906000526020600020905b8154815290600101906020018083116149ca57829003601f168201915b50505050508152602001600282018054614a0090615979565b80601f0160208091040260200160405190810160405280929190818152602001828054614a2c90615979565b8015614a795780601f10614a4e57610100808354040283529160200191614a79565b820191906000526020600020905b815481529060010190602001808311614a5c57829003601f168201915b50505050508152602001600382018054614a9290615979565b80601f0160208091040260200160405190810160405280929190818152602001828054614abe90615979565b8015614b0b5780601f10614ae057610100808354040283529160200191614b0b565b820191906000526020600020905b815481529060010190602001808311614aee57829003601f168201915b50505050508152602001600482018054614b2490615979565b80601f0160208091040260200160405190810160405280929190818152602001828054614b5090615979565b8015614b9d5780601f10614b7257610100808354040283529160200191614b9d565b820191906000526020600020905b815481529060010190602001808311614b8057829003601f168201915b50505050508152602001600582018054614bb690615979565b80601f0160208091040260200160405190810160405280929190818152602001828054614be290615979565b8015614c2f5780601f10614c0457610100808354040283529160200191614c2f565b820191906000526020600020905b815481529060010190602001808311614c1257829003601f168201915b50505050508152602001600682018054614c4890615979565b80601f0160208091040260200160405190810160405280929190818152602001828054614c7490615979565b8015614cc15780601f10614c9657610100808354040283529160200191614cc1565b820191906000526020600020905b815481529060010190602001808311614ca457829003601f168201915b50505050508152602001600782018054610ce990615979565b60606000600160008481526020019081526020016000206040518060c0016040529081600082018054614d0c90615979565b80601f0160208091040260200160405190810160405280929190818152602001828054614d3890615979565b8015614d855780601f10614d5a57610100808354040283529160200191614d85565b820191906000526020600020905b815481529060010190602001808311614d6857829003601f168201915b50505050508152602001600182018054614d9e90615979565b80601f0160208091040260200160405190810160405280929190818152602001828054614dca90615979565b8015614e175780601f10614dec57610100808354040283529160200191614e17565b820191906000526020600020905b815481529060010190602001808311614dfa57829003601f168201915b50505050508152602001600282018054614e3090615979565b80601f0160208091040260200160405190810160405280929190818152602001828054614e5c90615979565b8015614ea95780601f10614e7e57610100808354040283529160200191614ea9565b820191906000526020600020905b815481529060010190602001808311614e8c57829003601f168201915b50505050508152602001600382018054614ec290615979565b80601f0160208091040260200160405190810160405280929190818152602001828054614eee90615979565b8015614f3b5780601f10614f1057610100808354040283529160200191614f3b565b820191906000526020600020905b815481529060010190602001808311614f1e57829003601f168201915b50505050508152602001600482018054614f5490615979565b80601f0160208091040260200160405190810160405280929190818152602001828054614f8090615979565b8015614fcd5780601f10614fa257610100808354040283529160200191614fcd565b820191906000526020600020905b815481529060010190602001808311614fb057829003601f168201915b505050505081526020016005820180546132fe90615979565b60606000600160008481526020019081526020016000206040518060c001604052908160008201805461501890615979565b80601f016020809104026020016040519081016040528092919081815260200182805461504490615979565b80156150915780601f1061506657610100808354040283529160200191615091565b820191906000526020600020905b81548152906001019060200180831161507457829003601f168201915b505050505081526020016001820180546150aa90615979565b80601f01602080910402602001604051908101604052809291908181526020018280546150d690615979565b80156151235780601f106150f857610100808354040283529160200191615123565b820191906000526020600020905b81548152906001019060200180831161510657829003601f168201915b5050505050815260200160028201805461513c90615979565b80601f016020809104026020016040519081016040528092919081815260200182805461516890615979565b80156151b55780601f1061518a576101008083540402835291602001916151b5565b820191906000526020600020905b81548152906001019060200180831161519857829003601f168201915b505050505081526020016003820180546151ce90615979565b80601f01602080910402602001604051908101604052809291908181526020018280546151fa90615979565b80156152475780601f1061521c57610100808354040283529160200191615247565b820191906000526020600020905b81548152906001019060200180831161522a57829003601f168201915b5050505050815260200160048201805461526090615979565b80601f016020809104026020016040519081016040528092919081815260200182805461528c90615979565b80156152d95780601f106152ae576101008083540402835291602001916152d9565b820191906000526020600020905b8154815290600101906020018083116152bc57829003601f168201915b50505050508152602001600582018054610ce990615979565b8280546152fe90615979565b90600052602060002090601f0160209004810192826153205760008555615366565b82601f1061533957805160ff1916838001178555615366565b82800160010185558215615366579182015b8281111561536657825182559160200191906001019061534b565b50615372929150615376565b5090565b5b808211156153725760008155600101615377565b60006020828403121561539d57600080fd5b5035919050565b6000815180845260005b818110156153ca576020818501810151868301820152016153ae565b818111156153dc576000602083870101525b50601f01601f19169290920160200192915050565b60208152600061540460208301846153a4565b9392505050565b7f4e487b7100000000000000000000000000000000000000000000000000000000600052604160045260246000fd5b600082601f83011261544b57600080fd5b813567ffffffffffffffff808211156154665761546661540b565b604051601f8301601f19908116603f0116810190828211818310171561548e5761548e61540b565b816040528381528660208588010111156154a757600080fd5b836020870160208301376000602085830101528094505050505092915050565b600080604083850312156154da57600080fd5b82359150602083013567ffffffffffffffff8111156154f857600080fd5b6155048582860161543a565b9150509250929050565b60008060008060008060c0878903121561552757600080fd5b863567ffffffffffffffff8082111561553f57600080fd5b61554b8a838b0161543a565b9750602089013591508082111561556157600080fd5b61556d8a838b0161543a565b9650604089013591508082111561558357600080fd5b61558f8a838b0161543a565b955060608901359150808211156155a557600080fd5b6155b18a838b0161543a565b945060808901359150808211156155c757600080fd5b6155d38a838b0161543a565b935060a08901359150808211156155e957600080fd5b506155f689828a0161543a565b9150509295509295509295565b60808152600061561660808301876153a4565b828103602084015261562881876153a4565b9050828103604084015261563c81866153a4565b9050828103606084015261565081856153a4565b979650505050505050565b600080600080600080600080610100898b03121561567857600080fd5b883567ffffffffffffffff8082111561569057600080fd5b61569c8c838d0161543a565b995060208b01359150808211156156b257600080fd5b6156be8c838d0161543a565b985060408b01359150808211156156d457600080fd5b6156e08c838d0161543a565b975060608b01359150808211156156f657600080fd5b6157028c838d0161543a565b965060808b013591508082111561571857600080fd5b6157248c838d0161543a565b955060a08b013591508082111561573a57600080fd5b6157468c838d0161543a565b945060c08b013591508082111561575c57600080fd5b6157688c838d0161543a565b935060e08b013591508082111561577e57600080fd5b5061578b8b828c0161543a565b9150509295985092959890939650565b60c0815260006157ae60c08301896153a4565b82810360208401526157c081896153a4565b905082810360408401526157d481886153a4565b905082810360608401526157e881876153a4565b905082810360808401526157fc81866153a4565b905082810360a084015261581081856153a4565b9998505050505050505050565b60006101008083526158318184018c6153a4565b90508281036020840152615845818b6153a4565b90508281036040840152615859818a6153a4565b9050828103606084015261586d81896153a4565b9050828103608084015261588181886153a4565b905082810360a084015261589581876153a4565b905082810360c08401526158a981866153a4565b905082810360e08401526158bd81856153a4565b9b9a5050505050505050505050565b600080600080608085870312156158e257600080fd5b843567ffffffffffffffff808211156158fa57600080fd5b6159068883890161543a565b9550602087013591508082111561591c57600080fd5b6159288883890161543a565b9450604087013591508082111561593e57600080fd5b61594a8883890161543a565b9350606087013591508082111561596057600080fd5b5061596d8782880161543a565b91505092959194509250565b60028104600182168061598d57607f821691505b602082108114156159c7577f4e487b7100000000000000000000000000000000000000000000000000000000600052602260045260246000fd5b50919050565b6000600019821415615a08577f4e487b7100000000000000000000000000000000000000000000000000000000600052601160045260246000fd5b506001019056fea2646970667358221220092d3139eefa49d51d685c4ec4dc07f41e057d61631686f91e1d556bfc64a8fd64736f6c634300080b0033",
  "immutableReferences": {},
  "source": "pragma solidity >= 0.8.11 <= 0.8.11;\r\npragma experimental ABIEncoderV2;\r\n//Booking solidity code\r\ncontract Booking {\r\n\r\n    uint public userCount = 0; \r\n    mapping(uint => user) public userList; \r\n     struct user\r\n     {\r\n       string username;\r\n       string password;\r\n       string phone;\r\n       string email;\r\n       string user_type;\r\n       string vehicle_no;\r\n     }\r\n \r\n   // events \r\n   event userCreated(uint indexed _userId);\r\n   \r\n   //function  to save user details to Blockchain\r\n   function saveUser(string memory uname, string memory pass, string memory phone, string memory email, string memory ut, string memory vno) public {\r\n      userList[userCount] = user(uname, pass, phone, email, ut,vno);\r\n      emit userCreated(userCount);\r\n      userCount++;\r\n    }\r\n\r\n     //get user count\r\n    function getUserCount()  public view returns (uint) {\r\n          return  userCount;\r\n    }\r\n\r\n    uint public bookCount = 0; \r\n    mapping(uint => book) public bookList; \r\n     struct book\r\n     {\r\n       string book_id; \r\n       string passenger_name;\r\n       string location;\r\n       string book_time;\r\n       string vehicle_no;   \r\n       string amount;\r\n       string status;\r\n       string payment_details;\r\n     }\r\n \r\n   // events \r\n   event bookCreated(uint indexed _bookId);\r\n   \r\n   //function  to save booking details to Blockchain\r\n   function saveBooking(string memory bid, string memory pname, string memory loc, string memory btime, string memory vno, string memory amt, string memory st, string memory pd) public {\r\n      bookList[bookCount] = book(bid, pname, loc, btime, vno, amt, st, pd);\r\n      emit bookCreated(bookCount);\r\n      bookCount++;\r\n    }\r\n\r\n    //get book count\r\n    function getBookCount()  public view returns (uint) {\r\n          return  bookCount;\r\n    }\r\n\r\n    uint public reviewCount = 0; \r\n    mapping(uint => review) public reviewList; \r\n     struct review\r\n     {\r\n       string passenger;\r\n       string driver;\r\n       string feedback;\r\n       string ratings;\r\n     }\r\n \r\n   // events \r\n   event reviewCreated(uint indexed _reviewId);\r\n   \r\n   //function  to save review details to Blockchain\r\n   function saveReview(string memory passenger, string memory driver, string memory feedback, string memory ratings) public {\r\n      reviewList[reviewCount] = review(passenger, driver, feedback, ratings);\r\n      emit reviewCreated(reviewCount);\r\n     reviewCount++;\r\n    }\r\n\r\n     //get review count\r\n    function getReviewCount()  public view returns (uint) {\r\n          return  reviewCount;\r\n    }\r\n\r\n\r\n    function getUsername(uint i) public view returns (string memory) {\r\n        user memory doc = userList[i];\r\n\treturn doc.username;\r\n    }\r\n\r\n    function getPassword(uint i) public view returns (string memory) {\r\n        user memory doc = userList[i];\r\n\treturn doc.password;\r\n    }\r\n\r\n    function getPhone(uint i) public view returns (string memory) {\r\n        user memory doc = userList[i];\r\n\treturn doc.phone;\r\n    }    \r\n\r\n    function getEmail(uint i) public view returns (string memory) {\r\n        user memory doc = userList[i];\r\n\treturn doc.email;\r\n    }\r\n\r\n    function getUserType(uint i) public view returns (string memory) {\r\n        user memory doc = userList[i];\r\n\treturn doc.user_type;\r\n    }\r\n\r\n    function getVehicleNo(uint i) public view returns (string memory) {\r\n        user memory doc = userList[i];\r\n\treturn doc.vehicle_no;\r\n    }\r\n\r\n    function updateVehicle(uint i, string memory vno) public { \r\n      bookList[i].vehicle_no = vno;\r\n    }\r\n\r\n    function updateStatus(uint i, string memory st) public { \r\n      bookList[i].status = st;\r\n    }\r\n\r\n    function updateAmount(uint i, string memory amt) public { \r\n      bookList[i].amount = amt;\r\n    }\r\n\r\n    function updatePayment(uint i, string memory pd) public { \r\n      bookList[i].payment_details = pd;\r\n    }\r\n\r\n   function getBookingid(uint i) public view returns (string memory) {\r\n        book memory doc = bookList[i];\r\n\treturn doc.book_id;\r\n    }\r\n\r\n    function getPassengername(uint i) public view returns (string memory) {\r\n        book memory doc = bookList[i];\r\n\treturn doc.passenger_name;\r\n    }\r\n\r\n    function getLocation(uint i) public view returns (string memory) {\r\n        book memory doc = bookList[i];\r\n\treturn doc.location;\r\n    }\r\n    \r\n    function getBookTime(uint i) public view returns (string memory) {\r\n        book memory doc = bookList[i];\r\n\treturn doc.book_time;\r\n    }\r\n\r\n    function getVehicleNumber(uint i) public view returns (string memory) {\r\n        book memory doc = bookList[i];\r\n\treturn doc.vehicle_no;\r\n    }\r\n\r\n    function getAmount(uint i) public view returns (string memory) {\r\n        book memory doc = bookList[i];\r\n\treturn doc.amount;\r\n    }\r\n\r\n    function getStatus(uint i) public view returns (string memory) {\r\n        book memory doc = bookList[i];\r\n\treturn doc.status;\r\n    }\r\n\r\n    function getPaymentdetails(uint i) public view returns (string memory) {\r\n        book memory doc = bookList[i];\r\n\treturn doc.payment_details;\r\n    }\r\n\r\n    function getPassenger(uint i) public view returns (string memory) {\r\n        review memory doc = reviewList[i];\r\n\treturn doc.passenger;\r\n    }\r\n\r\n    function getDriver(uint i) public view returns (string memory) {\r\n        review memory doc = reviewList[i];\r\n\treturn doc.driver;\r\n    }\r\n\r\n    function getFeedback(uint i) public view returns (string memory) {\r\n        review memory doc = reviewList[i];\r\n\treturn doc.feedback;\r\n    }\r\n    function getRating(uint i) public view returns (string memory) {\r\n        review memory doc = reviewList[i];\r\n\treturn doc.ratings;\r\n    }\r\n    \r\n}",
  "sourcePath": "C:\\Users\\Admin\\Desktop\\Blockchain\\hello-eth\\node_modules\\.bin\\contracts\\Booking.sol",
  "compiler": {
    "name": "solc",
    "version": "0.8.11+commit.d7f03943.Emscripten.clang"
  },
  "schemaVersion": "3.4.4",
  "updatedAt": "2025-04-05T05:40:33.750Z",
  "networkType": "ethereum",
  "devdoc": {
    "kind": "dev",
    "methods": {},
    "version": 1
  },
  "userdoc": {
    "kind": "user",
    "methods": {},
    "version": 1
  }
}