{
  "_format": "hh-sol-artifact-1",
  "contractName": "CabBooking",
  "sourceName": "contracts/cabBooking.sol",
  "abi": [
    {
      "anonymous": false,
      "inputs": [
        {
          "indexed": true,
          "internalType": "address",
          "name": "driver",
          "type": "address"
        },
        {
          "indexed": false,
          "internalType": "string",
          "name": "name",
          "type": "string"
        }
      ],
      "name": "DriverRegistered",
      "type": "event"
    },
    {
      "anonymous": false,
      "inputs": [
        {
          "indexed": true,
          "internalType": "address",
          "name": "user",
          "type": "address"
        }
      ],
      "name": "LoginFailure",
      "type": "event"
    },
    {
      "anonymous": false,
      "inputs": [
        {
          "indexed": true,
          "internalType": "address",
          "name": "user",
          "type": "address"
        }
      ],
      "name": "LoginSuccess",
      "type": "event"
    },
    {
      "anonymous": false,
      "inputs": [
        {
          "indexed": true,
          "internalType": "address",
          "name": "driver",
          "type": "address"
        },
        {
          "indexed": false,
          "internalType": "uint256",
          "name": "requestId",
          "type": "uint256"
        }
      ],
      "name": "RideAssigned",
      "type": "event"
    },
    {
      "anonymous": false,
      "inputs": [
        {
          "indexed": false,
          "internalType": "uint256",
          "name": "requestId",
          "type": "uint256"
        }
      ],
      "name": "RideCompleted",
      "type": "event"
    },
    {
      "anonymous": false,
      "inputs": [
        {
          "indexed": false,
          "internalType": "uint256",
          "name": "requestId",
          "type": "uint256"
        },
        {
          "indexed": true,
          "internalType": "address",
          "name": "userAddress",
          "type": "address"
        },
        {
          "indexed": false,
          "internalType": "string",
          "name": "pickupLocation",
          "type": "string"
        },
        {
          "indexed": false,
          "internalType": "string",
          "name": "dropLocation",
          "type": "string"
        },
        {
          "indexed": false,
          "internalType": "uint256",
          "name": "distanceInKm",
          "type": "uint256"
        },
        {
          "indexed": false,
          "internalType": "string",
          "name": "vehicleType",
          "type": "string"
        }
      ],
      "name": "RideRequestNotification",
      "type": "event"
    },
    {
      "anonymous": false,
      "inputs": [
        {
          "indexed": true,
          "internalType": "address",
          "name": "user",
          "type": "address"
        },
        {
          "indexed": false,
          "internalType": "string",
          "name": "pickupLocation",
          "type": "string"
        },
        {
          "indexed": false,
          "internalType": "string",
          "name": "dropLocation",
          "type": "string"
        },
        {
          "indexed": false,
          "internalType": "uint256",
          "name": "distanceInKm",
          "type": "uint256"
        },
        {
          "indexed": false,
          "internalType": "string",
          "name": "vehicleType",
          "type": "string"
        }
      ],
      "name": "RideRequested",
      "type": "event"
    },
    {
      "anonymous": false,
      "inputs": [
        {
          "indexed": true,
          "internalType": "address",
          "name": "user",
          "type": "address"
        },
        {
          "indexed": false,
          "internalType": "string",
          "name": "firstName",
          "type": "string"
        },
        {
          "indexed": false,
          "internalType": "string",
          "name": "lastName",
          "type": "string"
        },
        {
          "indexed": false,
          "internalType": "string",
          "name": "email",
          "type": "string"
        }
      ],
      "name": "UserRegistered",
      "type": "event"
    },
    {
      "inputs": [
        {
          "internalType": "uint256",
          "name": "requestId",
          "type": "uint256"
        }
      ],
      "name": "acceptRide",
      "outputs": [],
      "stateMutability": "nonpayable",
      "type": "function"
    },
    {
      "inputs": [
        {
          "internalType": "uint256",
          "name": "distanceInKm",
          "type": "uint256"
        },
        {
          "internalType": "string",
          "name": "vehicleType",
          "type": "string"
        }
      ],
      "name": "calculateFare",
      "outputs": [
        {
          "internalType": "uint256",
          "name": "",
          "type": "uint256"
        }
      ],
      "stateMutability": "pure",
      "type": "function"
    },
    {
      "inputs": [
        {
          "internalType": "uint256",
          "name": "requestId",
          "type": "uint256"
        }
      ],
      "name": "completeRide",
      "outputs": [],
      "stateMutability": "nonpayable",
      "type": "function"
    },
    {
      "inputs": [
        {
          "internalType": "string",
          "name": "_email",
          "type": "string"
        },
        {
          "internalType": "string",
          "name": "_password",
          "type": "string"
        },
        {
          "internalType": "address",
          "name": "_walletAddress",
          "type": "address"
        }
      ],
      "name": "connectWallet",
      "outputs": [],
      "stateMutability": "nonpayable",
      "type": "function"
    },
    {
      "inputs": [
        {
          "internalType": "uint256",
          "name": "",
          "type": "uint256"
        }
      ],
      "name": "driverAddresses",
      "outputs": [
        {
          "internalType": "address",
          "name": "",
          "type": "address"
        }
      ],
      "stateMutability": "view",
      "type": "function"
    },
    {
      "inputs": [
        {
          "internalType": "address",
          "name": "",
          "type": "address"
        }
      ],
      "name": "drivers",
      "outputs": [
        {
          "internalType": "string",
          "name": "firstName",
          "type": "string"
        },
        {
          "internalType": "string",
          "name": "lastName",
          "type": "string"
        },
        {
          "internalType": "string",
          "name": "email",
          "type": "string"
        },
        {
          "internalType": "string",
          "name": "phoneNumber",
          "type": "string"
        },
        {
          "internalType": "string",
          "name": "password",
          "type": "string"
        },
        {
          "internalType": "string",
          "name": "licenseNumber",
          "type": "string"
        },
        {
          "internalType": "string",
          "name": "vehicleRegistrationNumber",
          "type": "string"
        },
        {
          "internalType": "address",
          "name": "driverAddress",
          "type": "address"
        },
        {
          "internalType": "address",
          "name": "walletAddress",
          "type": "address"
        },
        {
          "internalType": "bool",
          "name": "isAvailable",
          "type": "bool"
        },
        {
          "internalType": "bool",
          "name": "isRegistered",
          "type": "bool"
        }
      ],
      "stateMutability": "view",
      "type": "function"
    },
    {
      "inputs": [
        {
          "internalType": "string",
          "name": "_email",
          "type": "string"
        },
        {
          "internalType": "string",
          "name": "_password",
          "type": "string"
        },
        {
          "internalType": "string",
          "name": "role",
          "type": "string"
        }
      ],
      "name": "login",
      "outputs": [],
      "stateMutability": "nonpayable",
      "type": "function"
    },
    {
      "inputs": [],
      "name": "notifications",
      "outputs": [],
      "stateMutability": "nonpayable",
      "type": "function"
    },
    {
      "inputs": [
        {
          "internalType": "string",
          "name": "_firstName",
          "type": "string"
        },
        {
          "internalType": "string",
          "name": "_lastName",
          "type": "string"
        },
        {
          "internalType": "string",
          "name": "_email",
          "type": "string"
        },
        {
          "internalType": "string",
          "name": "_phoneNumber",
          "type": "string"
        },
        {
          "internalType": "string",
          "name": "_password",
          "type": "string"
        },
        {
          "internalType": "string",
          "name": "_licenseNumber",
          "type": "string"
        },
        {
          "internalType": "string",
          "name": "_vehicleRegistrationNumber",
          "type": "string"
        }
      ],
      "name": "registerDriver",
      "outputs": [],
      "stateMutability": "nonpayable",
      "type": "function"
    },
    {
      "inputs": [
        {
          "internalType": "string",
          "name": "_firstName",
          "type": "string"
        },
        {
          "internalType": "string",
          "name": "_lastName",
          "type": "string"
        },
        {
          "internalType": "string",
          "name": "_email",
          "type": "string"
        },
        {
          "internalType": "string",
          "name": "_phoneNumber",
          "type": "string"
        },
        {
          "internalType": "string",
          "name": "_password",
          "type": "string"
        }
      ],
      "name": "registerUser",
      "outputs": [],
      "stateMutability": "nonpayable",
      "type": "function"
    },
    {
      "inputs": [
        {
          "internalType": "string",
          "name": "_pickupLocation",
          "type": "string"
        },
        {
          "internalType": "string",
          "name": "_dropLocation",
          "type": "string"
        },
        {
          "internalType": "uint256",
          "name": "_distanceInKm",
          "type": "uint256"
        },
        {
          "internalType": "string",
          "name": "vehicleType",
          "type": "string"
        }
      ],
      "name": "requestRide",
      "outputs": [],
      "stateMutability": "payable",
      "type": "function"
    },
    {
      "inputs": [
        {
          "internalType": "uint256",
          "name": "",
          "type": "uint256"
        }
      ],
      "name": "rideRequests",
      "outputs": [
        {
          "internalType": "address",
          "name": "userAddress",
          "type": "address"
        },
        {
          "internalType": "string",
          "name": "pickupLocation",
          "type": "string"
        },
        {
          "internalType": "string",
          "name": "dropLocation",
          "type": "string"
        },
        {
          "internalType": "uint256",
          "name": "distanceInKm",
          "type": "uint256"
        },
        {
          "internalType": "string",
          "name": "vehicleType",
          "type": "string"
        },
        {
          "internalType": "bool",
          "name": "isCompleted",
          "type": "bool"
        },
        {
          "internalType": "address",
          "name": "assignedDriver",
          "type": "address"
        }
      ],
      "stateMutability": "view",
      "type": "function"
    },
    {
      "inputs": [],
      "name": "upcomingRides",
      "outputs": [
        {
          "components": [
            {
              "internalType": "address",
              "name": "userAddress",
              "type": "address"
            },
            {
              "internalType": "string",
              "name": "pickupLocation",
              "type": "string"
            },
            {
              "internalType": "string",
              "name": "dropLocation",
              "type": "string"
            },
            {
              "internalType": "uint256",
              "name": "distanceInKm",
              "type": "uint256"
            },
            {
              "internalType": "string",
              "name": "vehicleType",
              "type": "string"
            },
            {
              "internalType": "bool",
              "name": "isCompleted",
              "type": "bool"
            },
            {
              "internalType": "address",
              "name": "assignedDriver",
              "type": "address"
            }
          ],
          "internalType": "struct CabBooking.RideRequest[]",
          "name": "",
          "type": "tuple[]"
        }
      ],
      "stateMutability": "view",
      "type": "function"
    },
    {
      "inputs": [
        {
          "internalType": "address",
          "name": "",
          "type": "address"
        }
      ],
      "name": "users",
      "outputs": [
        {
          "internalType": "string",
          "name": "firstName",
          "type": "string"
        },
        {
          "internalType": "string",
          "name": "lastName",
          "type": "string"
        },
        {
          "internalType": "string",
          "name": "email",
          "type": "string"
        },
        {
          "internalType": "string",
          "name": "phoneNumber",
          "type": "string"
        },
        {
          "internalType": "string",
          "name": "password",
          "type": "string"
        },
        {
          "internalType": "address",
          "name": "userAddress",
          "type": "address"
        },
        {
          "internalType": "address",
          "name": "walletAddress",
          "type": "address"
        },
        {
          "internalType": "bool",
          "name": "isRegistered",
          "type": "bool"
        }
      ],
      "stateMutability": "view",
      "type": "function"
    }
  ],
  "bytecode": "0x608060405234801561001057600080fd5b50614505806100206000396000f3fe6080604052600436106100dd5760003560e01c8063ac9f0a401161007f578063c51562cb11610059578063c51562cb146102d3578063c85feec4146102fc578063ce63176614610339578063e970980014610362576100dd565b8063ac9f0a401461023e578063bcc601ab14610267578063c416dd0b146102aa576100dd565b8063888f232c116100bb578063888f232c1461019157806389fb40b2146101a85780639c1310f5146101d1578063a87430ba146101fa576100dd565b80634aa60186146100e25780636f9778cf1461012957806384d13b6b14610166575b600080fd5b3480156100ee57600080fd5b5061010960048036038101906101049190612f52565b61037e565b6040516101209b9a99989796959493929190613dd0565b60405180910390f35b34801561013557600080fd5b50610150600480360381019061014b919061339a565b6107ea565b60405161015d91906140a6565b60405180910390f35b34801561017257600080fd5b5061017b61099e565b6040516101889190613c9f565b60405180910390f35b34801561019d57600080fd5b506101a6611040565b005b3480156101b457600080fd5b506101cf60048036038101906101ca9190612f7b565b6110d1565b005b3480156101dd57600080fd5b506101f860048036038101906101f39190613180565b61134f565b005b34801561020657600080fd5b50610221600480360381019061021c9190612f52565b6116f6565b604051610235989796959493929190613d2f565b60405180910390f35b34801561024a57600080fd5b5061026560048036038101906102609190613091565b611a33565b005b34801561027357600080fd5b5061028e60048036038101906102899190613371565b611d05565b6040516102a19796959493929190613c1b565b60405180910390f35b3480156102b657600080fd5b506102d160048036038101906102cc9190613371565b611f3c565b005b3480156102df57600080fd5b506102fa60048036038101906102f59190613371565b61219a565b005b34801561030857600080fd5b50610323600480360381019061031e9190613371565b6123e4565b6040516103309190613c00565b60405180910390f35b34801561034557600080fd5b50610360600480360381019061035b9190612ffa565b612423565b005b61037c600480360381019061037791906132c6565b612948565b005b60016020528060005260406000206000915090508060000180546103a190614359565b80601f01602080910402602001604051908101604052809291908181526020018280546103cd90614359565b801561041a5780601f106103ef5761010080835404028352916020019161041a565b820191906000526020600020905b8154815290600101906020018083116103fd57829003601f168201915b50505050509080600101805461042f90614359565b80601f016020809104026020016040519081016040528092919081815260200182805461045b90614359565b80156104a85780601f1061047d576101008083540402835291602001916104a8565b820191906000526020600020905b81548152906001019060200180831161048b57829003601f168201915b5050505050908060020180546104bd90614359565b80601f01602080910402602001604051908101604052809291908181526020018280546104e990614359565b80156105365780601f1061050b57610100808354040283529160200191610536565b820191906000526020600020905b81548152906001019060200180831161051957829003601f168201915b50505050509080600301805461054b90614359565b80601f016020809104026020016040519081016040528092919081815260200182805461057790614359565b80156105c45780601f10610599576101008083540402835291602001916105c4565b820191906000526020600020905b8154815290600101906020018083116105a757829003601f168201915b5050505050908060040180546105d990614359565b80601f016020809104026020016040519081016040528092919081815260200182805461060590614359565b80156106525780601f1061062757610100808354040283529160200191610652565b820191906000526020600020905b81548152906001019060200180831161063557829003601f168201915b50505050509080600501805461066790614359565b80601f016020809104026020016040519081016040528092919081815260200182805461069390614359565b80156106e05780601f106106b5576101008083540402835291602001916106e0565b820191906000526020600020905b8154815290600101906020018083116106c357829003601f168201915b5050505050908060060180546106f590614359565b80601f016020809104026020016040519081016040528092919081815260200182805461072190614359565b801561076e5780601f106107435761010080835404028352916020019161076e565b820191906000526020600020905b81548152906001019060200180831161075157829003601f168201915b5050505050908060070160009054906101000a900473ffffffffffffffffffffffffffffffffffffffff16908060080160009054906101000a900473ffffffffffffffffffffffffffffffffffffffff16908060080160149054906101000a900460ff16908060080160159054906101000a900460ff1690508b565b600080600080612710905060405160200161080490613beb565b604051602081830303815290604052805190602001208560405160200161082b9190613b69565b60405160208183030381529060405280519060200120141561085f576001866108549190614241565b9250600a9150610970565b60405160200161086e90613bac565b60405160208183030381529060405280519060200120856040516020016108959190613b69565b6040516020818303038152906040528051906020012014156108c9576005866108be9190614241565b9250600a915061096f565b6040516020016108d890613b97565b60405160208183030381529060405280519060200120856040516020016108ff9190613b69565b60405160208183030381529060405280519060200120141561093357600f866109289190614241565b9250600a915061096e565b6040517f08c379a000000000000000000000000000000000000000000000000000000000815260040161096590614026565b60405180910390fd5b5b5b6000828761097e9190614241565b90506000828261098e9190614210565b9050809550505050505092915050565b6060600160003373ffffffffffffffffffffffffffffffffffffffff1673ffffffffffffffffffffffffffffffffffffffff16815260200190815260200160002060080160159054906101000a900460ff16610a2f576040517f08c379a0000000000000000000000000000000000000000000000000000000008152600401610a2690614066565b60405180910390fd5b6000805b600380549050811015610b645760038181548110610a7a577f4e487b7100000000000000000000000000000000000000000000000000000000600052603260045260246000fd5b906000526020600020906006020160050160009054906101000a900460ff16158015610b3d5750600073ffffffffffffffffffffffffffffffffffffffff1660038281548110610af3577f4e487b7100000000000000000000000000000000000000000000000000000000600052603260045260246000fd5b906000526020600020906006020160050160019054906101000a900473ffffffffffffffffffffffffffffffffffffffff1673ffffffffffffffffffffffffffffffffffffffff16145b15610b51578180610b4d9061438b565b9250505b8080610b5c9061438b565b915050610a33565b5060008167ffffffffffffffff811115610ba7577f4e487b7100000000000000000000000000000000000000000000000000000000600052604160045260246000fd5b604051908082528060200260200182016040528015610be057816020015b610bcd612db2565b815260200190600190039081610bc55790505b5090506000805b6003805490508110156110365760038181548110610c2e577f4e487b7100000000000000000000000000000000000000000000000000000000600052603260045260246000fd5b906000526020600020906006020160050160009054906101000a900460ff16158015610cf15750600073ffffffffffffffffffffffffffffffffffffffff1660038281548110610ca7577f4e487b7100000000000000000000000000000000000000000000000000000000600052603260045260246000fd5b906000526020600020906006020160050160019054906101000a900473ffffffffffffffffffffffffffffffffffffffff1673ffffffffffffffffffffffffffffffffffffffff16145b156110235760038181548110610d30577f4e487b7100000000000000000000000000000000000000000000000000000000600052603260045260246000fd5b90600052602060002090600602016040518060e00160405290816000820160009054906101000a900473ffffffffffffffffffffffffffffffffffffffff1673ffffffffffffffffffffffffffffffffffffffff1673ffffffffffffffffffffffffffffffffffffffff168152602001600182018054610daf90614359565b80601f0160208091040260200160405190810160405280929190818152602001828054610ddb90614359565b8015610e285780601f10610dfd57610100808354040283529160200191610e28565b820191906000526020600020905b815481529060010190602001808311610e0b57829003601f168201915b50505050508152602001600282018054610e4190614359565b80601f0160208091040260200160405190810160405280929190818152602001828054610e6d90614359565b8015610eba5780601f10610e8f57610100808354040283529160200191610eba565b820191906000526020600020905b815481529060010190602001808311610e9d57829003601f168201915b5050505050815260200160038201548152602001600482018054610edd90614359565b80601f0160208091040260200160405190810160405280929190818152602001828054610f0990614359565b8015610f565780601f10610f2b57610100808354040283529160200191610f56565b820191906000526020600020905b815481529060010190602001808311610f3957829003601f168201915b505050505081526020016005820160009054906101000a900460ff161515151581526020016005820160019054906101000a900473ffffffffffffffffffffffffffffffffffffffff1673ffffffffffffffffffffffffffffffffffffffff1673ffffffffffffffffffffffffffffffffffffffff1681525050838381518110611009577f4e487b7100000000000000000000000000000000000000000000000000000000600052603260045260246000fd5b6020026020010181905250818061101f9061438b565b9250505b808061102e9061438b565b915050610be7565b5081935050505090565b600160003373ffffffffffffffffffffffffffffffffffffffff1673ffffffffffffffffffffffffffffffffffffffff16815260200190815260200160002060080160159054906101000a900460ff166110cf576040517f08c379a00000000000000000000000000000000000000000000000000000000081526004016110c690614066565b60405180910390fd5b565b6000803373ffffffffffffffffffffffffffffffffffffffff1673ffffffffffffffffffffffffffffffffffffffff16815260200190815260200160002060060160149054906101000a900460ff1661115f576040517f08c379a000000000000000000000000000000000000000000000000000000000815260040161115690614086565b60405180910390fd5b60008060003373ffffffffffffffffffffffffffffffffffffffff1673ffffffffffffffffffffffffffffffffffffffff1681526020019081526020016000209050836040516020016111b29190613b69565b60405160208183030381529060405280519060200120816002016040516020016111dc9190613b80565b6040516020818303038152906040528051906020012014611232576040517f08c379a000000000000000000000000000000000000000000000000000000000815260040161122990613f26565b60405180910390fd5b826040516020016112439190613b69565b604051602081830303815290604052805190602001208160040160405160200161126d9190613b80565b60405160208183030381529060405280519060200120146112c3576040517f08c379a00000000000000000000000000000000000000000000000000000000081526004016112ba90613f66565b60405180910390fd5b818160060160006101000a81548173ffffffffffffffffffffffffffffffffffffffff021916908373ffffffffffffffffffffffffffffffffffffffff1602179055503373ffffffffffffffffffffffffffffffffffffffff167f4030f20e8ea3ab971764b15284af3ac69183ee130434a7d41809c8b8e4be328060405160405180910390a250505050565b600160003373ffffffffffffffffffffffffffffffffffffffff1673ffffffffffffffffffffffffffffffffffffffff16815260200190815260200160002060080160159054906101000a900460ff16156113df576040517f08c379a00000000000000000000000000000000000000000000000000000000081526004016113d690613fc6565b60405180910390fd5b6040518061016001604052808881526020018781526020018681526020018581526020018481526020018381526020018281526020013373ffffffffffffffffffffffffffffffffffffffff168152602001600073ffffffffffffffffffffffffffffffffffffffff16815260200160011515815260200160011515815250600160003373ffffffffffffffffffffffffffffffffffffffff1673ffffffffffffffffffffffffffffffffffffffff16815260200190815260200160002060008201518160000190805190602001906114b9929190612e1d565b5060208201518160010190805190602001906114d6929190612e1d565b5060408201518160020190805190602001906114f3929190612e1d565b506060820151816003019080519060200190611510929190612e1d565b50608082015181600401908051906020019061152d929190612e1d565b5060a082015181600501908051906020019061154a929190612e1d565b5060c0820151816006019080519060200190611567929190612e1d565b5060e08201518160070160006101000a81548173ffffffffffffffffffffffffffffffffffffffff021916908373ffffffffffffffffffffffffffffffffffffffff1602179055506101008201518160080160006101000a81548173ffffffffffffffffffffffffffffffffffffffff021916908373ffffffffffffffffffffffffffffffffffffffff1602179055506101208201518160080160146101000a81548160ff0219169083151502179055506101408201518160080160156101000a81548160ff0219169083151502179055509050506002339080600181540180825580915050600190039060005260206000200160009091909190916101000a81548173ffffffffffffffffffffffffffffffffffffffff021916908373ffffffffffffffffffffffffffffffffffffffff1602179055503373ffffffffffffffffffffffffffffffffffffffff167f9b956fafd6b420070aaa3307dcf792c7a34a3118d4271ee745e1472b281a2f1f886040516116e59190613cc1565b60405180910390a250505050505050565b600060205280600052604060002060009150905080600001805461171990614359565b80601f016020809104026020016040519081016040528092919081815260200182805461174590614359565b80156117925780601f1061176757610100808354040283529160200191611792565b820191906000526020600020905b81548152906001019060200180831161177557829003601f168201915b5050505050908060010180546117a790614359565b80601f01602080910402602001604051908101604052809291908181526020018280546117d390614359565b80156118205780601f106117f557610100808354040283529160200191611820565b820191906000526020600020905b81548152906001019060200180831161180357829003601f168201915b50505050509080600201805461183590614359565b80601f016020809104026020016040519081016040528092919081815260200182805461186190614359565b80156118ae5780601f10611883576101008083540402835291602001916118ae565b820191906000526020600020905b81548152906001019060200180831161189157829003601f168201915b5050505050908060030180546118c390614359565b80601f01602080910402602001604051908101604052809291908181526020018280546118ef90614359565b801561193c5780601f106119115761010080835404028352916020019161193c565b820191906000526020600020905b81548152906001019060200180831161191f57829003601f168201915b50505050509080600401805461195190614359565b80601f016020809104026020016040519081016040528092919081815260200182805461197d90614359565b80156119ca5780601f1061199f576101008083540402835291602001916119ca565b820191906000526020600020905b8154815290600101906020018083116119ad57829003601f168201915b5050505050908060050160009054906101000a900473ffffffffffffffffffffffffffffffffffffffff16908060060160009054906101000a900473ffffffffffffffffffffffffffffffffffffffff16908060060160149054906101000a900460ff16905088565b6000803373ffffffffffffffffffffffffffffffffffffffff1673ffffffffffffffffffffffffffffffffffffffff16815260200190815260200160002060060160149054906101000a900460ff1615611ac2576040517f08c379a0000000000000000000000000000000000000000000000000000000008152600401611ab990614046565b60405180910390fd5b6040518061010001604052808681526020018581526020018481526020018381526020018281526020013373ffffffffffffffffffffffffffffffffffffffff168152602001600073ffffffffffffffffffffffffffffffffffffffff168152602001600115158152506000803373ffffffffffffffffffffffffffffffffffffffff1673ffffffffffffffffffffffffffffffffffffffff1681526020019081526020016000206000820151816000019080519060200190611b86929190612e1d565b506020820151816001019080519060200190611ba3929190612e1d565b506040820151816002019080519060200190611bc0929190612e1d565b506060820151816003019080519060200190611bdd929190612e1d565b506080820151816004019080519060200190611bfa929190612e1d565b5060a08201518160050160006101000a81548173ffffffffffffffffffffffffffffffffffffffff021916908373ffffffffffffffffffffffffffffffffffffffff16021790555060c08201518160060160006101000a81548173ffffffffffffffffffffffffffffffffffffffff021916908373ffffffffffffffffffffffffffffffffffffffff16021790555060e08201518160060160146101000a81548160ff0219169083151502179055509050503373ffffffffffffffffffffffffffffffffffffffff167f509c70f523067009f7db7f46db6956d7af8b679323680dc3821a8bad001ac1e1868686604051611cf693929190613ce3565b60405180910390a25050505050565b60038181548110611d1557600080fd5b90600052602060002090600602016000915090508060000160009054906101000a900473ffffffffffffffffffffffffffffffffffffffff1690806001018054611d5e90614359565b80601f0160208091040260200160405190810160405280929190818152602001828054611d8a90614359565b8015611dd75780601f10611dac57610100808354040283529160200191611dd7565b820191906000526020600020905b815481529060010190602001808311611dba57829003601f168201915b505050505090806002018054611dec90614359565b80601f0160208091040260200160405190810160405280929190818152602001828054611e1890614359565b8015611e655780601f10611e3a57610100808354040283529160200191611e65565b820191906000526020600020905b815481529060010190602001808311611e4857829003601f168201915b505050505090806003015490806004018054611e8090614359565b80601f0160208091040260200160405190810160405280929190818152602001828054611eac90614359565b8015611ef95780601f10611ece57610100808354040283529160200191611ef9565b820191906000526020600020905b815481529060010190602001808311611edc57829003601f168201915b5050505050908060050160009054906101000a900460ff16908060050160019054906101000a900473ffffffffffffffffffffffffffffffffffffffff16905087565b600160003373ffffffffffffffffffffffffffffffffffffffff1673ffffffffffffffffffffffffffffffffffffffff16815260200190815260200160002060080160159054906101000a900460ff16611fcb576040517f08c379a0000000000000000000000000000000000000000000000000000000008152600401611fc290614066565b60405180910390fd5b6003805490508110612012576040517f08c379a000000000000000000000000000000000000000000000000000000000815260040161200990614006565b60405180910390fd5b60006003828154811061204e577f4e487b7100000000000000000000000000000000000000000000000000000000600052603260045260246000fd5b906000526020600020906006020190503373ffffffffffffffffffffffffffffffffffffffff168160050160019054906101000a900473ffffffffffffffffffffffffffffffffffffffff1673ffffffffffffffffffffffffffffffffffffffff16146120f0576040517f08c379a00000000000000000000000000000000000000000000000000000000081526004016120e790613f06565b60405180910390fd5b8060050160009054906101000a900460ff1615612142576040517f08c379a000000000000000000000000000000000000000000000000000000000815260040161213990613fe6565b60405180910390fd5b60018160050160006101000a81548160ff0219169083151502179055507f63e5b4bf8bc6c9cf867e6cc4d53f654c1f0365d975100e04129de6383f8c4b238260405161218e91906140a6565b60405180910390a15050565b600160003373ffffffffffffffffffffffffffffffffffffffff1673ffffffffffffffffffffffffffffffffffffffff16815260200190815260200160002060080160159054906101000a900460ff16612229576040517f08c379a000000000000000000000000000000000000000000000000000000000815260040161222090614066565b60405180910390fd5b6003805490508110612270576040517f08c379a000000000000000000000000000000000000000000000000000000000815260040161226790614006565b60405180910390fd5b6000600382815481106122ac577f4e487b7100000000000000000000000000000000000000000000000000000000600052603260045260246000fd5b90600052602060002090600602019050600073ffffffffffffffffffffffffffffffffffffffff168160050160019054906101000a900473ffffffffffffffffffffffffffffffffffffffff1673ffffffffffffffffffffffffffffffffffffffff161461234f576040517f08c379a000000000000000000000000000000000000000000000000000000000815260040161234690613f46565b60405180910390fd5b338160050160016101000a81548173ffffffffffffffffffffffffffffffffffffffff021916908373ffffffffffffffffffffffffffffffffffffffff1602179055503373ffffffffffffffffffffffffffffffffffffffff167f9118f57da647c93173832714ba8c4ceca2a1c36a6a23dd088765eb850f24c5bb836040516123d891906140a6565b60405180910390a25050565b600281815481106123f457600080fd5b906000526020600020016000915054906101000a900473ffffffffffffffffffffffffffffffffffffffff1681565b60405160200161243290613bd6565b60405160208183030381529060405280519060200120816040516020016124599190613b69565b6040516020818303038152906040528051906020012014156126735760008060003373ffffffffffffffffffffffffffffffffffffffff1673ffffffffffffffffffffffffffffffffffffffff16815260200190815260200160002090508060060160149054906101000a900460ff16612508576040517f08c379a00000000000000000000000000000000000000000000000000000000081526004016124ff90614086565b60405180910390fd5b836040516020016125199190613b69565b60405160208183030381529060405280519060200120816002016040516020016125439190613b80565b6040516020818303038152906040528051906020012014612599576040517f08c379a000000000000000000000000000000000000000000000000000000000815260040161259090613f26565b60405180910390fd5b826040516020016125aa9190613b69565b60405160208183030381529060405280519060200120816004016040516020016125d49190613b80565b604051602081830303815290604052805190602001201461262a576040517f08c379a000000000000000000000000000000000000000000000000000000000815260040161262190613f66565b60405180910390fd5b3373ffffffffffffffffffffffffffffffffffffffff167f4030f20e8ea3ab971764b15284af3ac69183ee130434a7d41809c8b8e4be328060405160405180910390a250612943565b60405160200161268290613bc1565b60405160208183030381529060405280519060200120816040516020016126a99190613b69565b6040516020818303038152906040528051906020012014156128c4576000600160003373ffffffffffffffffffffffffffffffffffffffff1673ffffffffffffffffffffffffffffffffffffffff16815260200190815260200160002090508060080160159054906101000a900460ff16612759576040517f08c379a000000000000000000000000000000000000000000000000000000000815260040161275090614066565b60405180910390fd5b8360405160200161276a9190613b69565b60405160208183030381529060405280519060200120816002016040516020016127949190613b80565b60405160208183030381529060405280519060200120146127ea576040517f08c379a00000000000000000000000000000000000000000000000000000000081526004016127e190613f26565b60405180910390fd5b826040516020016127fb9190613b69565b60405160208183030381529060405280519060200120816004016040516020016128259190613b80565b604051602081830303815290604052805190602001201461287b576040517f08c379a000000000000000000000000000000000000000000000000000000000815260040161287290613f66565b60405180910390fd5b3373ffffffffffffffffffffffffffffffffffffffff167f4030f20e8ea3ab971764b15284af3ac69183ee130434a7d41809c8b8e4be328060405160405180910390a250612942565b3373ffffffffffffffffffffffffffffffffffffffff167fe7c54b77ed8d8109c25bf1caae708030ee580689f6801ba1848f8539c4e74a5260405160405180910390a26040517f08c379a000000000000000000000000000000000000000000000000000000000815260040161293990613fa6565b60405180910390fd5b5b505050565b6000803373ffffffffffffffffffffffffffffffffffffffff1673ffffffffffffffffffffffffffffffffffffffff16815260200190815260200160002060060160149054906101000a900460ff166129d6576040517f08c379a00000000000000000000000000000000000000000000000000000000081526004016129cd90614086565b60405180910390fd5b60006129e283836107ea565b90506103e8670de0b6b3a7640000826129fb9190614241565b612a059190614210565b341015612a47576040517f08c379a0000000000000000000000000000000000000000000000000000000008152600401612a3e90613f86565b60405180910390fd5b60006040518060e001604052803373ffffffffffffffffffffffffffffffffffffffff168152602001878152602001868152602001858152602001848152602001600015158152602001600073ffffffffffffffffffffffffffffffffffffffff168152509050600381908060018154018082558091505060019003906000526020600020906006020160009091909190915060008201518160000160006101000a81548173ffffffffffffffffffffffffffffffffffffffff021916908373ffffffffffffffffffffffffffffffffffffffff1602179055506020820151816001019080519060200190612b3d929190612e1d565b506040820151816002019080519060200190612b5a929190612e1d565b50606082015181600301556080820151816004019080519060200190612b81929190612e1d565b5060a08201518160050160006101000a81548160ff02191690831515021790555060c08201518160050160016101000a81548173ffffffffffffffffffffffffffffffffffffffff021916908373ffffffffffffffffffffffffffffffffffffffff16021790555050503373ffffffffffffffffffffffffffffffffffffffff167fb08b970a5ee21762577e65cd6fa208ae5bf64a0ebb04abae9309b0b82ee56b0587878787604051612c379493929190613eac565b60405180910390a2612c4881612c50565b505050505050565b60006001600380549050612c64919061429b565b905060005b600280549050811015612dad576001600060028381548110612cb4577f4e487b7100000000000000000000000000000000000000000000000000000000600052603260045260246000fd5b9060005260206000200160009054906101000a900473ffffffffffffffffffffffffffffffffffffffff1673ffffffffffffffffffffffffffffffffffffffff1673ffffffffffffffffffffffffffffffffffffffff16815260200190815260200160002060080160149054906101000a900460ff1615612d9a57826000015173ffffffffffffffffffffffffffffffffffffffff167fb6e3149037114824b12da065000eb29121433f8fcb3a1018ef9bfbe0875f457b838560200151866040015187606001518860800151604051612d919594939291906140c1565b60405180910390a25b8080612da59061438b565b915050612c69565b505050565b6040518060e00160405280600073ffffffffffffffffffffffffffffffffffffffff16815260200160608152602001606081526020016000815260200160608152602001600015158152602001600073ffffffffffffffffffffffffffffffffffffffff1681525090565b828054612e2990614359565b90600052602060002090601f016020900481019282612e4b5760008555612e92565b82601f10612e6457805160ff1916838001178555612e92565b82800160010185558215612e92579182015b82811115612e91578251825591602001919060010190612e76565b5b509050612e9f9190612ea3565b5090565b5b80821115612ebc576000816000905550600101612ea4565b5090565b6000612ed3612ece8461415a565b614129565b905082815260208101848484011115612eeb57600080fd5b612ef6848285614317565b509392505050565b600081359050612f0d816144a1565b92915050565b600082601f830112612f2457600080fd5b8135612f34848260208601612ec0565b91505092915050565b600081359050612f4c816144b8565b92915050565b600060208284031215612f6457600080fd5b6000612f7284828501612efe565b91505092915050565b600080600060608486031215612f9057600080fd5b600084013567ffffffffffffffff811115612faa57600080fd5b612fb686828701612f13565b935050602084013567ffffffffffffffff811115612fd357600080fd5b612fdf86828701612f13565b9250506040612ff086828701612efe565b9150509250925092565b60008060006060848603121561300f57600080fd5b600084013567ffffffffffffffff81111561302957600080fd5b61303586828701612f13565b935050602084013567ffffffffffffffff81111561305257600080fd5b61305e86828701612f13565b925050604084013567ffffffffffffffff81111561307b57600080fd5b61308786828701612f13565b9150509250925092565b600080600080600060a086880312156130a957600080fd5b600086013567ffffffffffffffff8111156130c357600080fd5b6130cf88828901612f13565b955050602086013567ffffffffffffffff8111156130ec57600080fd5b6130f888828901612f13565b945050604086013567ffffffffffffffff81111561311557600080fd5b61312188828901612f13565b935050606086013567ffffffffffffffff81111561313e57600080fd5b61314a88828901612f13565b925050608086013567ffffffffffffffff81111561316757600080fd5b61317388828901612f13565b9150509295509295909350565b600080600080600080600060e0888a03121561319b57600080fd5b600088013567ffffffffffffffff8111156131b557600080fd5b6131c18a828b01612f13565b975050602088013567ffffffffffffffff8111156131de57600080fd5b6131ea8a828b01612f13565b965050604088013567ffffffffffffffff81111561320757600080fd5b6132138a828b01612f13565b955050606088013567ffffffffffffffff81111561323057600080fd5b61323c8a828b01612f13565b945050608088013567ffffffffffffffff81111561325957600080fd5b6132658a828b01612f13565b93505060a088013567ffffffffffffffff81111561328257600080fd5b61328e8a828b01612f13565b92505060c088013567ffffffffffffffff8111156132ab57600080fd5b6132b78a828b01612f13565b91505092959891949750929550565b600080600080608085870312156132dc57600080fd5b600085013567ffffffffffffffff8111156132f657600080fd5b61330287828801612f13565b945050602085013567ffffffffffffffff81111561331f57600080fd5b61332b87828801612f13565b935050604061333c87828801612f3d565b925050606085013567ffffffffffffffff81111561335957600080fd5b61336587828801612f13565b91505092959194509250565b60006020828403121561338357600080fd5b600061339184828501612f3d565b91505092915050565b600080604083850312156133ad57600080fd5b60006133bb85828601612f3d565b925050602083013567ffffffffffffffff8111156133d857600080fd5b6133e485828601612f13565b9150509250929050565b60006133fa8383613aa1565b905092915050565b61340b816142cf565b82525050565b61341a816142cf565b82525050565b600061342b826141af565b61343581856141d2565b9350836020820285016134478561418a565b8060005b85811015613483578484038952815161346485826133ee565b945061346f836141c5565b925060208a0199505060018101905061344b565b50829750879550505050505092915050565b61349e816142e1565b82525050565b6134ad816142e1565b82525050565b60006134be826141ba565b6134c881856141e3565b93506134d8818560208601614326565b6134e181614490565b840191505092915050565b60006134f7826141ba565b61350181856141f4565b9350613511818560208601614326565b61351a81614490565b840191505092915050565b6000613530826141ba565b61353a8185614205565b935061354a818560208601614326565b80840191505092915050565b6000815461356381614359565b61356d8186614205565b945060018216600081146135885760018114613599576135cc565b60ff198316865281860193506135cc565b6135a28561419a565b60005b838110156135c4578154818901526001820191506020810190506135a5565b838801955050505b50505092915050565b60006135e26022836141f4565b91507f596f7520617265206e6f742061737369676e656420746f20746869732072696460008301527f652e0000000000000000000000000000000000000000000000000000000000006020830152604082019050919050565b60006136486015836141f4565b91507f456d61696c20646f6573206e6f74206d617463682e00000000000000000000006000830152602082019050919050565b6000613688600383614205565b91507f63617200000000000000000000000000000000000000000000000000000000006000830152600382019050919050565b60006136c86016836141f4565b91507f5269646520616c72656164792061737369676e65642e000000000000000000006000830152602082019050919050565b60006137086016836141f4565b91507f50617373776f726420697320696e636f72726563742e000000000000000000006000830152602082019050919050565b60006137486018836141f4565b91507f496e73756666696369656e742066756e64732073656e742e00000000000000006000830152602082019050919050565b6000613788600483614205565b91507f62696b65000000000000000000000000000000000000000000000000000000006000830152600482019050919050565b60006137c86017836141f4565b91507f496e76616c696420726f6c65207370656369666965642e0000000000000000006000830152602082019050919050565b6000613808601a836141f4565b91507f44726976657220616c726561647920726567697374657265642e0000000000006000830152602082019050919050565b60006138486017836141f4565b91507f5269646520616c726561647920636f6d706c657465642e0000000000000000006000830152602082019050919050565b60006138886013836141f4565b91507f496e76616c696420726571756573742049442e000000000000000000000000006000830152602082019050919050565b60006138c8603a836141f4565b91507f496e76616c69642076656869636c6520747970652e20506c656173652075736560008301527f20276175746f272c202762696b65272c206f722027636172272e0000000000006020830152604082019050919050565b600061392e6018836141f4565b91507f5573657220616c726561647920726567697374657265642e00000000000000006000830152602082019050919050565b600061396e600683614205565b91507f64726976657200000000000000000000000000000000000000000000000000006000830152600682019050919050565b60006139ae600483614205565b91507f75736572000000000000000000000000000000000000000000000000000000006000830152600482019050919050565b60006139ee600483614205565b91507f6175746f000000000000000000000000000000000000000000000000000000006000830152600482019050919050565b6000613a2e6019836141f4565b91507f447269766572206973206e6f7420726567697374657265642e000000000000006000830152602082019050919050565b6000613a6e6017836141f4565b91507f55736572206973206e6f7420726567697374657265642e0000000000000000006000830152602082019050919050565b600060e083016000830151613ab96000860182613402565b5060208301518482036020860152613ad182826134b3565b91505060408301518482036040860152613aeb82826134b3565b9150506060830151613b006060860182613b4b565b5060808301518482036080860152613b1882826134b3565b91505060a0830151613b2d60a0860182613495565b5060c0830151613b4060c0860182613402565b508091505092915050565b613b548161430d565b82525050565b613b638161430d565b82525050565b6000613b758284613525565b915081905092915050565b6000613b8c8284613556565b915081905092915050565b6000613ba28261367b565b9150819050919050565b6000613bb78261377b565b9150819050919050565b6000613bcc82613961565b9150819050919050565b6000613be1826139a1565b9150819050919050565b6000613bf6826139e1565b9150819050919050565b6000602082019050613c156000830184613411565b92915050565b600060e082019050613c30600083018a613411565b8181036020830152613c4281896134ec565b90508181036040830152613c5681886134ec565b9050613c656060830187613b5a565b8181036080830152613c7781866134ec565b9050613c8660a08301856134a4565b613c9360c0830184613411565b98975050505050505050565b60006020820190508181036000830152613cb98184613420565b905092915050565b60006020820190508181036000830152613cdb81846134ec565b905092915050565b60006060820190508181036000830152613cfd81866134ec565b90508181036020830152613d1181856134ec565b90508181036040830152613d2581846134ec565b9050949350505050565b6000610100820190508181036000830152613d4a818b6134ec565b90508181036020830152613d5e818a6134ec565b90508181036040830152613d7281896134ec565b90508181036060830152613d8681886134ec565b90508181036080830152613d9a81876134ec565b9050613da960a0830186613411565b613db660c0830185613411565b613dc360e08301846134a4565b9998505050505050505050565b6000610160820190508181036000830152613deb818e6134ec565b90508181036020830152613dff818d6134ec565b90508181036040830152613e13818c6134ec565b90508181036060830152613e27818b6134ec565b90508181036080830152613e3b818a6134ec565b905081810360a0830152613e4f81896134ec565b905081810360c0830152613e6381886134ec565b9050613e7260e0830187613411565b613e80610100830186613411565b613e8e6101208301856134a4565b613e9c6101408301846134a4565b9c9b505050505050505050505050565b60006080820190508181036000830152613ec681876134ec565b90508181036020830152613eda81866134ec565b9050613ee96040830185613b5a565b8181036060830152613efb81846134ec565b905095945050505050565b60006020820190508181036000830152613f1f816135d5565b9050919050565b60006020820190508181036000830152613f3f8161363b565b9050919050565b60006020820190508181036000830152613f5f816136bb565b9050919050565b60006020820190508181036000830152613f7f816136fb565b9050919050565b60006020820190508181036000830152613f9f8161373b565b9050919050565b60006020820190508181036000830152613fbf816137bb565b9050919050565b60006020820190508181036000830152613fdf816137fb565b9050919050565b60006020820190508181036000830152613fff8161383b565b9050919050565b6000602082019050818103600083015261401f8161387b565b9050919050565b6000602082019050818103600083015261403f816138bb565b9050919050565b6000602082019050818103600083015261405f81613921565b9050919050565b6000602082019050818103600083015261407f81613a21565b9050919050565b6000602082019050818103600083015261409f81613a61565b9050919050565b60006020820190506140bb6000830184613b5a565b92915050565b600060a0820190506140d66000830188613b5a565b81810360208301526140e881876134ec565b905081810360408301526140fc81866134ec565b905061410b6060830185613b5a565b818103608083015261411d81846134ec565b90509695505050505050565b6000604051905081810181811067ffffffffffffffff821117156141505761414f614461565b5b8060405250919050565b600067ffffffffffffffff82111561417557614174614461565b5b601f19601f8301169050602081019050919050565b6000819050602082019050919050565b60008190508160005260206000209050919050565b600081519050919050565b600081519050919050565b6000602082019050919050565b600082825260208201905092915050565b600082825260208201905092915050565b600082825260208201905092915050565b600081905092915050565b600061421b8261430d565b91506142268361430d565b92508261423657614235614403565b5b828204905092915050565b600061424c8261430d565b91506142578361430d565b9250817fffffffffffffffffffffffffffffffffffffffffffffffffffffffffffffffff04831182151516156142905761428f6143d4565b5b828202905092915050565b60006142a68261430d565b91506142b18361430d565b9250828210156142c4576142c36143d4565b5b828203905092915050565b60006142da826142ed565b9050919050565b60008115159050919050565b600073ffffffffffffffffffffffffffffffffffffffff82169050919050565b6000819050919050565b82818337600083830152505050565b60005b83811015614344578082015181840152602081019050614329565b83811115614353576000848401525b50505050565b6000600282049050600182168061437157607f821691505b6020821081141561438557614384614432565b5b50919050565b60006143968261430d565b91507fffffffffffffffffffffffffffffffffffffffffffffffffffffffffffffffff8214156143c9576143c86143d4565b5b600182019050919050565b7f4e487b7100000000000000000000000000000000000000000000000000000000600052601160045260246000fd5b7f4e487b7100000000000000000000000000000000000000000000000000000000600052601260045260246000fd5b7f4e487b7100000000000000000000000000000000000000000000000000000000600052602260045260246000fd5b7f4e487b7100000000000000000000000000000000000000000000000000000000600052604160045260246000fd5b6000601f19601f8301169050919050565b6144aa816142cf565b81146144b557600080fd5b50565b6144c18161430d565b81146144cc57600080fd5b5056fea26469706673582212209546db172fd2a750e6cc088e98458ead1d7354140e7e361b88b5eb41f1932b2e64736f6c63430008000033",
  "linkReferences": {},
  "deployedLinkReferences": {}
}